{
  "contractName": "CMC",
  "abi": [
    {
      "constant": true,
      "inputs": [],
      "name": "owner",
      "outputs": [
        {
          "name": "",
          "type": "address"
        }
      ],
      "payable": false,
      "stateMutability": "view",
      "type": "function",
      "signature": "0x8da5cb5b"
    },
    {
      "constant": true,
      "inputs": [
        {
          "name": "",
          "type": "bytes32"
        }
      ],
      "name": "contracts",
      "outputs": [
        {
          "name": "",
          "type": "address"
        }
      ],
      "payable": false,
      "stateMutability": "view",
      "type": "function",
      "signature": "0xec56a373"
    },
    {
      "inputs": [],
      "payable": false,
      "stateMutability": "nonpayable",
      "type": "constructor",
      "signature": "constructor"
    },
    {
      "anonymous": false,
      "inputs": [
        {
          "indexed": true,
          "name": "owner",
          "type": "address"
        },
        {
          "indexed": true,
          "name": "_name",
          "type": "bytes32"
        },
        {
          "indexed": false,
          "name": "_addr",
          "type": "address"
        }
      ],
      "name": "contractAdded",
      "type": "event",
      "signature": "0x05d91c87e847f2291e8e16035574631b3f924f9b7d6cacb88c2e7789d0580e3d"
    },
    {
      "anonymous": false,
      "inputs": [
        {
          "indexed": true,
          "name": "owner",
          "type": "address"
        },
        {
          "indexed": true,
          "name": "_name",
          "type": "bytes32"
        }
      ],
      "name": "contractRemoved",
      "type": "event",
      "signature": "0x03f43353402cdba7f5874e4f91daeb0866817ea0a787d8fadd444f312c0e5c14"
    },
    {
      "anonymous": false,
      "inputs": [
        {
          "indexed": true,
          "name": "owner",
          "type": "address"
        }
      ],
      "name": "allContractRemoved",
      "type": "event",
      "signature": "0xd53d3cce98772b6be1ba79c19bd6f3a9a8170b758f92ec9510aebd1d2770d34d"
    },
    {
      "constant": false,
      "inputs": [
        {
          "name": "_name",
          "type": "bytes32"
        },
        {
          "name": "_addr",
          "type": "address"
        }
      ],
      "name": "addContract",
      "outputs": [],
      "payable": false,
      "stateMutability": "nonpayable",
      "type": "function",
      "signature": "0x5188f996"
    }
  ],
  "bytecode": "0x608060405234801561001057600080fd5b50336000806101000a81548173ffffffffffffffffffffffffffffffffffffffff021916908373ffffffffffffffffffffffffffffffffffffffff160217905550610513806100606000396000f3fe608060405260043610610057576000357c0100000000000000000000000000000000000000000000000000000000900463ffffffff1680635188f9961461005c5780638da5cb5b146100b7578063ec56a3731461010e575b600080fd5b34801561006857600080fd5b506100b56004803603604081101561007f57600080fd5b8101908080359060200190929190803573ffffffffffffffffffffffffffffffffffffffff169060200190929190505050610189565b005b3480156100c357600080fd5b506100cc61048f565b604051808273ffffffffffffffffffffffffffffffffffffffff1673ffffffffffffffffffffffffffffffffffffffff16815260200191505060405180910390f35b34801561011a57600080fd5b506101476004803603602081101561013157600080fd5b81019080803590602001909291905050506104b4565b604051808273ffffffffffffffffffffffffffffffffffffffff1673ffffffffffffffffffffffffffffffffffffffff16815260200191505060405180910390f35b6000809054906101000a900473ffffffffffffffffffffffffffffffffffffffff1673ffffffffffffffffffffffffffffffffffffffff163373ffffffffffffffffffffffffffffffffffffffff1614151561024d576040517f08c379a000000000000000000000000000000000000000000000000000000000815260040180806020018281038252600d8152602001807f496e76616c6964206f776e65720000000000000000000000000000000000000081525060200191505060405180910390fd5b60008190508073ffffffffffffffffffffffffffffffffffffffff1663d8dbe4c9306040518263ffffffff167c0100000000000000000000000000000000000000000000000000000000028152600401808273ffffffffffffffffffffffffffffffffffffffff1673ffffffffffffffffffffffffffffffffffffffff168152602001915050602060405180830381600087803b1580156102ed57600080fd5b505af1158015610301573d6000803e3d6000fd5b505050506040513d602081101561031757600080fd5b8101908080519060200190929190505050151561039c576040517f08c379a000000000000000000000000000000000000000000000000000000000815260040180806020018281038252600e8152602001807f41646420434d43204661696c656400000000000000000000000000000000000081525060200191505060405180910390fd5b816001600085815260200190815260200160002060006101000a81548173ffffffffffffffffffffffffffffffffffffffff021916908373ffffffffffffffffffffffffffffffffffffffff160217905550826000809054906101000a900473ffffffffffffffffffffffffffffffffffffffff1673ffffffffffffffffffffffffffffffffffffffff167f05d91c87e847f2291e8e16035574631b3f924f9b7d6cacb88c2e7789d0580e3d84604051808273ffffffffffffffffffffffffffffffffffffffff1673ffffffffffffffffffffffffffffffffffffffff16815260200191505060405180910390a3505050565b6000809054906101000a900473ffffffffffffffffffffffffffffffffffffffff1681565b60016020528060005260406000206000915054906101000a900473ffffffffffffffffffffffffffffffffffffffff168156fea165627a7a723058205a7d97fc8d6b7a932b94fcd38e99b836080fcf8172a9fa95501e64b044e3f7a10029",
  "source": "pragma solidity <=0.5.0;\r\n\r\n//Author: Fadhlan Ridhwanallah\r\nimport \"./CMCEnabled.sol\";\r\n\r\n//CMC from 5 type model\r\ncontract CMC {\r\n  address public owner;\r\n\r\n  // This is where we keep all the contracts.\r\n  mapping (bytes32 => address) public contracts;\r\n\r\n  modifier onlyOwner {\r\n    require(msg.sender == owner, \"Invalid owner\"); // this ensures that only the owner can access the function\r\n    _;\r\n  }\r\n\r\n  // Constructor\r\n  constructor() public{\r\n      owner = msg.sender;\r\n  }\r\n\r\n  event contractAdded(address indexed owner, bytes32 indexed _name, address _addr);\r\n  event contractRemoved(address indexed owner, bytes32 indexed _name);\r\n  event allContractRemoved(address indexed owner);\r\n\r\n  // Add a new contract to Doug. This will overwrite an existing contract.\r\n  function addContract(bytes32 _name, address _addr) external onlyOwner {\r\n      CMCEnabled cmcEnabled = CMCEnabled(_addr);\r\n      // Don't add the contract if this does not work.\r\n      if(!cmcEnabled.setContractManager(address(this))) {\r\n        revert(\"Add CMC Failed\");\r\n      }\r\n\r\n      contracts[_name] = _addr;\r\n      emit contractAdded(owner, _name, _addr);\r\n  }\r\n}\r\n",
  "sourcePath": "/Users/fadhlan.ridhwanallah/Documents/Project/TOKOIN/Contract_SmartHouse/contracts/CMC.sol",
  "compiler": {
    "name": "solc",
    "version": "0.5.0+commit.1d4f565a.Emscripten.clang"
  },
  "schemaVersion": "3.0.2",
  "updatedAt": "2019-03-09T17:45:35.856Z",
  "devdoc": {
    "methods": {}
  },
  "userdoc": {
    "methods": {}
  }
}