{
  "contractName": "CMCEnabled",
  "abi": [
    {
      "constant": false,
      "inputs": [
        {
          "name": "_contractManager",
          "type": "address"
        }
      ],
      "name": "setContractManager",
      "outputs": [
        {
          "name": "",
          "type": "bool"
        }
      ],
      "payable": false,
      "stateMutability": "nonpayable",
      "type": "function"
    }
  ],
  "bytecode": "0x608060405234801561001057600080fd5b5061019d806100206000396000f3fe608060405260043610610041576000357c0100000000000000000000000000000000000000000000000000000000900463ffffffff168063d8dbe4c914610046575b600080fd5b34801561005257600080fd5b506100956004803603602081101561006957600080fd5b81019080803573ffffffffffffffffffffffffffffffffffffffff1690602001909291905050506100af565b604051808215151515815260200191505060405180910390f35b60008073ffffffffffffffffffffffffffffffffffffffff168273ffffffffffffffffffffffffffffffffffffffff161415801561011957508173ffffffffffffffffffffffffffffffffffffffff163373ffffffffffffffffffffffffffffffffffffffff1614155b15610127576000905061016c565b816000806101000a81548173ffffffffffffffffffffffffffffffffffffffff021916908373ffffffffffffffffffffffffffffffffffffffff160217905550600190505b91905056fea165627a7a72305820d50c6a7f3fc8c679aed7297c0b313829836ce8dd563eda11cfa0e636c0cb926e0029",
  "source": "pragma solidity <=0.5.0;\r\n//Author: Fadhlan Ridhwanallah\r\n\r\n//Base contract for contracts that are used in a smart property system.\r\ncontract CMCEnabled{\r\n  address contractManager;\r\n\r\n  function setContractManager(address _contractManager) external returns (bool){\r\n    if(_contractManager != address(0x0) && msg.sender != _contractManager){\r\n        return false;\r\n    }\r\n\r\n    contractManager = _contractManager;\r\n    return true;\r\n  }\r\n}\r\n",
  "sourcePath": "/Users/fadhlan.ridhwanallah/Documents/Project/TOKOIN/Contract_SmartHouse/contracts/CMCEnabled.sol",
  "compiler": {
    "name": "solc",
    "version": "0.5.0+commit.1d4f565a.Emscripten.clang"
  },
  "schemaVersion": "3.0.2",
  "updatedAt": "2019-03-09T15:14:18.886Z",
  "devdoc": {
    "methods": {}
  },
  "userdoc": {
    "methods": {}
  }
}