{
  "contractName": "House",
  "abi": [
    {
      "constant": false,
      "inputs": [
        {
          "name": "_contractManager",
          "type": "address"
        }
      ],
      "name": "setContractManager",
      "outputs": [
        {
          "name": "",
          "type": "bool"
        }
      ],
      "payable": false,
      "stateMutability": "nonpayable",
      "type": "function",
      "signature": "0xd8dbe4c9"
    },
    {
      "anonymous": false,
      "inputs": [
        {
          "indexed": false,
          "name": "from",
          "type": "address"
        },
        {
          "indexed": false,
          "name": "to",
          "type": "address"
        },
        {
          "indexed": false,
          "name": "tokenId",
          "type": "uint256"
        }
      ],
      "name": "Transfer",
      "type": "event",
      "signature": "0xddf252ad1be2c89b69c2b068fc378daa952ba7f163c4a11628f55a4df523b3ef"
    },
    {
      "constant": true,
      "inputs": [],
      "name": "totalSupply",
      "outputs": [
        {
          "name": "",
          "type": "uint256"
        }
      ],
      "payable": false,
      "stateMutability": "view",
      "type": "function",
      "signature": "0x18160ddd"
    },
    {
      "constant": true,
      "inputs": [
        {
          "name": "_propertyId",
          "type": "uint256"
        }
      ],
      "name": "ownerOf",
      "outputs": [
        {
          "name": "",
          "type": "address"
        }
      ],
      "payable": false,
      "stateMutability": "view",
      "type": "function",
      "signature": "0x6352211e"
    },
    {
      "constant": true,
      "inputs": [
        {
          "name": "_owner",
          "type": "address"
        }
      ],
      "name": "balanceOf",
      "outputs": [
        {
          "name": "",
          "type": "uint256"
        }
      ],
      "payable": false,
      "stateMutability": "view",
      "type": "function",
      "signature": "0x70a08231"
    },
    {
      "constant": true,
      "inputs": [
        {
          "name": "_propertyId",
          "type": "uint256"
        }
      ],
      "name": "getHouseData",
      "outputs": [
        {
          "name": "",
          "type": "string"
        },
        {
          "name": "",
          "type": "address"
        }
      ],
      "payable": false,
      "stateMutability": "view",
      "type": "function",
      "signature": "0xb2abfb13"
    },
    {
      "constant": true,
      "inputs": [
        {
          "name": "_propertyId",
          "type": "uint256"
        }
      ],
      "name": "getCryptoKey",
      "outputs": [
        {
          "name": "",
          "type": "bytes32"
        }
      ],
      "payable": false,
      "stateMutability": "view",
      "type": "function",
      "signature": "0xe0bec3fe"
    },
    {
      "constant": false,
      "inputs": [
        {
          "name": "_propertyId",
          "type": "uint256"
        },
        {
          "name": "_location",
          "type": "string"
        },
        {
          "name": "_beneficiary",
          "type": "address"
        }
      ],
      "name": "houseRegistration",
      "outputs": [],
      "payable": false,
      "stateMutability": "nonpayable",
      "type": "function",
      "signature": "0x9c839ced"
    },
    {
      "constant": false,
      "inputs": [
        {
          "name": "_from",
          "type": "address"
        },
        {
          "name": "_to",
          "type": "address"
        },
        {
          "name": "_propertyId",
          "type": "uint256"
        }
      ],
      "name": "transferHouse",
      "outputs": [],
      "payable": false,
      "stateMutability": "nonpayable",
      "type": "function",
      "signature": "0x052c36c0"
    }
  ],
  "bytecode": "0x608060405234801561001057600080fd5b50611553806100206000396000f3fe60806040526004361061008e576000357c0100000000000000000000000000000000000000000000000000000000900463ffffffff168063052c36c01461009357806318160ddd1461010e5780636352211e1461013957806370a08231146101b45780639c839ced14610219578063b2abfb13146102c9578063d8dbe4c9146103b0578063e0bec3fe14610419575b600080fd5b34801561009f57600080fd5b5061010c600480360360608110156100b657600080fd5b81019080803573ffffffffffffffffffffffffffffffffffffffff169060200190929190803573ffffffffffffffffffffffffffffffffffffffff16906020019092919080359060200190929190505050610468565b005b34801561011a57600080fd5b5061012361070c565b6040518082815260200191505060405180910390f35b34801561014557600080fd5b506101726004803603602081101561015c57600080fd5b8101908080359060200190929190505050610833565b604051808273ffffffffffffffffffffffffffffffffffffffff1673ffffffffffffffffffffffffffffffffffffffff16815260200191505060405180910390f35b3480156101c057600080fd5b50610203600480360360208110156101d757600080fd5b81019080803573ffffffffffffffffffffffffffffffffffffffff1690602001909291905050506108c1565b6040518082815260200191505060405180910390f35b34801561022557600080fd5b506102c76004803603606081101561023c57600080fd5b81019080803590602001909291908035906020019064010000000081111561026357600080fd5b82018360208201111561027557600080fd5b8035906020019184600183028401116401000000008311171561029757600080fd5b9091929391929390803573ffffffffffffffffffffffffffffffffffffffff169060200190929190505050610a78565b005b3480156102d557600080fd5b50610302600480360360208110156102ec57600080fd5b8101908080359060200190929190505050610e41565b60405180806020018373ffffffffffffffffffffffffffffffffffffffff1673ffffffffffffffffffffffffffffffffffffffff168152602001828103825284818151815260200191508051906020019080838360005b83811015610374578082015181840152602081019050610359565b50505050905090810190601f1680156103a15780820380516001836020036101000a031916815260200191505b50935050505060405180910390f35b3480156103bc57600080fd5b506103ff600480360360208110156103d357600080fd5b81019080803573ffffffffffffffffffffffffffffffffffffffff169060200190929190505050610ff4565b604051808215151515815260200191505060405180910390f35b34801561042557600080fd5b506104526004803603602081101561043c57600080fd5b81019080803590602001909291905050506110b6565b6040518082815260200191505060405180910390f35b61047061125c565b15156104e4576040517f08c379a000000000000000000000000000000000000000000000000000000000815260040180806020018281038252601c8152602001807f496e76616c696420536d61727420486f75736520436f6e74726163740000000081525060200191505060405180910390fd5b6104ec61137f565b73ffffffffffffffffffffffffffffffffffffffff1663c2ad498484836040518363ffffffff167c0100000000000000000000000000000000000000000000000000000000028152600401808373ffffffffffffffffffffffffffffffffffffffff1673ffffffffffffffffffffffffffffffffffffffff16815260200182815260200192505050600060405180830381600087803b15801561058e57600080fd5b505af11580156105a2573d6000803e3d6000fd5b505050506105ae61137f565b73ffffffffffffffffffffffffffffffffffffffff1663f29573ff83836040518363ffffffff167c0100000000000000000000000000000000000000000000000000000000028152600401808373ffffffffffffffffffffffffffffffffffffffff1673ffffffffffffffffffffffffffffffffffffffff16815260200182815260200192505050600060405180830381600087803b15801561065057600080fd5b505af1158015610664573d6000803e3d6000fd5b505050507fddf252ad1be2c89b69c2b068fc378daa952ba7f163c4a11628f55a4df523b3ef838383604051808473ffffffffffffffffffffffffffffffffffffffff1673ffffffffffffffffffffffffffffffffffffffff1681526020018373ffffffffffffffffffffffffffffffffffffffff1673ffffffffffffffffffffffffffffffffffffffff168152602001828152602001935050505060405180910390a1505050565b600061071661125c565b151561078a576040517f08c379a000000000000000000000000000000000000000000000000000000000815260040180806020018281038252601c8152602001807f496e76616c696420536d61727420486f75736520436f6e74726163740000000081525060200191505060405180910390fd5b61079261137f565b73ffffffffffffffffffffffffffffffffffffffff1663a87d942c6040518163ffffffff167c010000000000000000000000000000000000000000000000000000000002815260040160206040518083038186803b1580156107f357600080fd5b505afa158015610807573d6000803e3d6000fd5b505050506040513d602081101561081d57600080fd5b8101908080519060200190929190505050905090565b600061083d61125c565b15156108b1576040517f08c379a000000000000000000000000000000000000000000000000000000000815260040180806020018281038252601c8152602001807f496e76616c696420536d61727420486f75736520436f6e74726163740000000081525060200191505060405180910390fd5b6108ba8261146f565b9050919050565b60006108cb61125c565b151561093f576040517f08c379a000000000000000000000000000000000000000000000000000000000815260040180806020018281038252601c8152602001807f496e76616c696420536d61727420486f75736520436f6e74726163740000000081525060200191505060405180910390fd5b61094761137f565b73ffffffffffffffffffffffffffffffffffffffff166381774350836040518263ffffffff167c0100000000000000000000000000000000000000000000000000000000028152600401808273ffffffffffffffffffffffffffffffffffffffff1673ffffffffffffffffffffffffffffffffffffffff16815260200191505060006040518083038186803b1580156109df57600080fd5b505afa1580156109f3573d6000803e3d6000fd5b505050506040513d6000823e3d601f19601f820116820180604052506020811015610a1d57600080fd5b810190808051640100000000811115610a3557600080fd5b82810190506020810184811115610a4b57600080fd5b8151856020820283011164010000000082111715610a6857600080fd5b5050929190505050519050919050565b610a8061125c565b1515610af4576040517f08c379a000000000000000000000000000000000000000000000000000000000815260040180806020018281038252601c8152602001807f496e76616c696420536d61727420486f75736520436f6e74726163740000000081525060200191505060405180910390fd5b600073ffffffffffffffffffffffffffffffffffffffff16610b158561146f565b73ffffffffffffffffffffffffffffffffffffffff16141515610ba0576040517f08c379a000000000000000000000000000000000000000000000000000000000815260040180806020018281038252600f8152602001807f486f75736520686173206f776e6572000000000000000000000000000000000081525060200191505060405180910390fd5b60008185604051602001808373ffffffffffffffffffffffffffffffffffffffff1673ffffffffffffffffffffffffffffffffffffffff166c0100000000000000000000000002815260140182815260200192505050604051602081830303815290604052805190602001209050610c1661137f565b73ffffffffffffffffffffffffffffffffffffffff16636c89a835868686856040518563ffffffff167c010000000000000000000000000000000000000000000000000000000002815260040180858152602001806020018381526020018281038252858582818152602001925080828437600081840152601f19601f82011690508083019250505095505050505050600060405180830381600087803b158015610cc057600080fd5b505af1158015610cd4573d6000803e3d6000fd5b50505050610ce061137f565b73ffffffffffffffffffffffffffffffffffffffff1663f29573ff83876040518363ffffffff167c0100000000000000000000000000000000000000000000000000000000028152600401808373ffffffffffffffffffffffffffffffffffffffff1673ffffffffffffffffffffffffffffffffffffffff16815260200182815260200192505050600060405180830381600087803b158015610d8257600080fd5b505af1158015610d96573d6000803e3d6000fd5b505050507fddf252ad1be2c89b69c2b068fc378daa952ba7f163c4a11628f55a4df523b3ef60008387604051808473ffffffffffffffffffffffffffffffffffffffff1673ffffffffffffffffffffffffffffffffffffffff1681526020018373ffffffffffffffffffffffffffffffffffffffff1673ffffffffffffffffffffffffffffffffffffffff168152602001828152602001935050505060405180910390a15050505050565b60606000610e4d61125c565b1515610ec1576040517f08c379a000000000000000000000000000000000000000000000000000000000815260040180806020018281038252601c8152602001807f496e76616c696420536d61727420486f75736520436f6e74726163740000000081525060200191505060405180910390fd5b60606000610ecd61137f565b73ffffffffffffffffffffffffffffffffffffffff1663b2abfb13866040518263ffffffff167c01000000000000000000000000000000000000000000000000000000000281526004018082815260200191505060006040518083038186803b158015610f3957600080fd5b505afa158015610f4d573d6000803e3d6000fd5b505050506040513d6000823e3d601f19601f820116820180604052506040811015610f7757600080fd5b810190808051640100000000811115610f8f57600080fd5b82810190506020810184811115610fa557600080fd5b8151856001820283011164010000000082111715610fc257600080fd5b505092919060200180519060200190929190505050809250819350505081610fe98661146f565b935093505050915091565b60008073ffffffffffffffffffffffffffffffffffffffff168273ffffffffffffffffffffffffffffffffffffffff161415801561105e57508173ffffffffffffffffffffffffffffffffffffffff163373ffffffffffffffffffffffffffffffffffffffff1614155b1561106c57600090506110b1565b816000806101000a81548173ffffffffffffffffffffffffffffffffffffffff021916908373ffffffffffffffffffffffffffffffffffffffff160217905550600190505b919050565b60006110c061125c565b1515611134576040517f08c379a000000000000000000000000000000000000000000000000000000000815260040180806020018281038252601c8152602001807f496e76616c696420536d61727420486f75736520436f6e74726163740000000081525060200191505060405180910390fd5b6060600061114061137f565b73ffffffffffffffffffffffffffffffffffffffff1663b2abfb13856040518263ffffffff167c01000000000000000000000000000000000000000000000000000000000281526004018082815260200191505060006040518083038186803b1580156111ac57600080fd5b505afa1580156111c0573d6000803e3d6000fd5b505050506040513d6000823e3d601f19601f8201168201806040525060408110156111ea57600080fd5b81019080805164010000000081111561120257600080fd5b8281019050602081018481111561121857600080fd5b815185600182028301116401000000008211171561123557600080fd5b50509291906020018051906020019092919050505080925081935050508092505050919050565b6000806000809054906101000a900473ffffffffffffffffffffffffffffffffffffffff1673ffffffffffffffffffffffffffffffffffffffff1663ec56a3736040518163ffffffff167c010000000000000000000000000000000000000000000000000000000002815260040180807f736d617274686f75736500000000000000000000000000000000000000000000815250602001905060206040518083038186803b15801561130d57600080fd5b505afa158015611321573d6000803e3d6000fd5b505050506040513d602081101561133757600080fd5b810190808051906020019092919050505090508073ffffffffffffffffffffffffffffffffffffffff163373ffffffffffffffffffffffffffffffffffffffff161491505090565b60008060009054906101000a900473ffffffffffffffffffffffffffffffffffffffff1673ffffffffffffffffffffffffffffffffffffffff1663ec56a3736040518163ffffffff167c010000000000000000000000000000000000000000000000000000000002815260040180807f686f757365646200000000000000000000000000000000000000000000000000815250602001905060206040518083038186803b15801561142f57600080fd5b505afa158015611443573d6000803e3d6000fd5b505050506040513d602081101561145957600080fd5b8101908080519060200190929190505050905090565b600061147961137f565b73ffffffffffffffffffffffffffffffffffffffff16638e723237836040518263ffffffff167c01000000000000000000000000000000000000000000000000000000000281526004018082815260200191505060206040518083038186803b1580156114e557600080fd5b505afa1580156114f9573d6000803e3d6000fd5b505050506040513d602081101561150f57600080fd5b8101908080519060200190929190505050905091905056fea165627a7a723058202e1177663d8c70027e1594532d629af3bf778b0e332f7799fa07153838fbaacf0029",
  "source": "pragma solidity <=0.5.0;\r\n//Author: Fadhlan Ridhwanallah\r\n\r\nimport './SmartHouseEnabled.sol';\r\nimport './HouseDB.sol';\r\nimport './ERC721.sol';\r\nimport './ContractProvider.sol';\r\n\r\n//Application Logic\r\ncontract House is SmartHouseEnabled, ERC721 {\r\n  function getHouseDB() private view returns (address){\r\n    return ContractProvider(contractManager).contracts('housedb');\r\n  }\r\n\r\n  //Modifier and Validate Function\r\n  modifier onlySmartHouse() {\r\n    require(isSmartHouse(), \"Invalid Smart House Contract\");\r\n    _;\r\n  }\r\n\r\n  //Getter\r\n  function totalSupply() external view onlySmartHouse returns (uint256) {\r\n    return HouseDB(getHouseDB()).getCount();\r\n  }\r\n\r\n  function _ownerOf (uint256 _propertyId) private view returns (address) {\r\n    return HouseDB(getHouseDB()).getHolderOf(_propertyId);\r\n  }\r\n\r\n  function ownerOf(uint256 _propertyId) external view onlySmartHouse returns (address) {\r\n    return _ownerOf(_propertyId);\r\n  }\r\n\r\n  function balanceOf(address _owner) external view onlySmartHouse returns (uint256) {\r\n    return HouseDB(getHouseDB()).getHouseOf(_owner).length;\r\n  }\r\n\r\n  function getHouseData(uint256 _propertyId) external view onlySmartHouse returns (string memory, address) {\r\n    string memory location;\r\n    bytes32 cryptoKey;\r\n\r\n    (location, cryptoKey) = HouseDB(getHouseDB()).getHouseData(_propertyId);\r\n    return (location, _ownerOf(_propertyId));\r\n  }\r\n\r\n  function getCryptoKey(uint256 _propertyId) external view onlySmartHouse returns (bytes32) {\r\n    string memory location;\r\n    bytes32 cryptoKey;\r\n\r\n    (location, cryptoKey) = HouseDB(getHouseDB()).getHouseData(_propertyId);\r\n    return (cryptoKey);\r\n  }\r\n\r\n  //External setter\r\n  function  houseRegistration(uint256 _propertyId, string calldata _location, address _beneficiary) external onlySmartHouse {\r\n    require(_ownerOf(_propertyId) == address(0x0), \"House has owner\");\r\n\r\n    bytes32 cryptoKey = keccak256(abi.encodePacked(_beneficiary, _propertyId));\r\n\r\n    HouseDB(getHouseDB()).setHouseData(_propertyId, _location, cryptoKey);\r\n    HouseDB(getHouseDB()).addTo(_beneficiary, _propertyId);\r\n\r\n    emit Transfer(address(0x0), _beneficiary, _propertyId);\r\n  }\r\n\r\n  function transferHouse(address _from, address _to, uint256 _propertyId)\r\n    onlySmartHouse\r\n    external\r\n  {\r\n    HouseDB(getHouseDB()).removeFrom(_from, _propertyId);\r\n    HouseDB(getHouseDB()).addTo(_to, _propertyId);\r\n\r\n    emit Transfer(_from, _to, _propertyId);\r\n  }\r\n}\r\n",
  "sourcePath": "/Users/fadhlan.ridhwanallah/Documents/Project/TOKOIN/Contract_SmartHouse/contracts/House.sol",
  "compiler": {
    "name": "solc",
    "version": "0.5.0+commit.1d4f565a.Emscripten.clang"
  },
  "schemaVersion": "3.0.2",
  "updatedAt": "2019-03-09T17:45:35.869Z",
  "devdoc": {
    "methods": {}
  },
  "userdoc": {
    "methods": {}
  }
}