{
  "contractName": "HouseDB",
  "abi": [
    {
      "constant": false,
      "inputs": [
        {
          "name": "_contractManager",
          "type": "address"
        }
      ],
      "name": "setContractManager",
      "outputs": [
        {
          "name": "",
          "type": "bool"
        }
      ],
      "payable": false,
      "stateMutability": "nonpayable",
      "type": "function",
      "signature": "0xd8dbe4c9"
    },
    {
      "constant": true,
      "inputs": [
        {
          "name": "_propertyId",
          "type": "uint256"
        }
      ],
      "name": "getHolderOf",
      "outputs": [
        {
          "name": "",
          "type": "address"
        }
      ],
      "payable": false,
      "stateMutability": "view",
      "type": "function",
      "signature": "0x8e723237"
    },
    {
      "constant": true,
      "inputs": [],
      "name": "getCount",
      "outputs": [
        {
          "name": "",
          "type": "uint256"
        }
      ],
      "payable": false,
      "stateMutability": "view",
      "type": "function",
      "signature": "0xa87d942c"
    },
    {
      "constant": true,
      "inputs": [
        {
          "name": "_owner",
          "type": "address"
        }
      ],
      "name": "getHouseOf",
      "outputs": [
        {
          "name": "",
          "type": "uint256[]"
        }
      ],
      "payable": false,
      "stateMutability": "view",
      "type": "function",
      "signature": "0x81774350"
    },
    {
      "constant": true,
      "inputs": [
        {
          "name": "_propertyId",
          "type": "uint256"
        }
      ],
      "name": "getHouseData",
      "outputs": [
        {
          "name": "",
          "type": "string"
        },
        {
          "name": "",
          "type": "bytes32"
        }
      ],
      "payable": false,
      "stateMutability": "view",
      "type": "function",
      "signature": "0xb2abfb13"
    },
    {
      "constant": false,
      "inputs": [
        {
          "name": "_propertyId",
          "type": "uint256"
        },
        {
          "name": "_location",
          "type": "string"
        },
        {
          "name": "_cryptoKey",
          "type": "bytes32"
        }
      ],
      "name": "setHouseData",
      "outputs": [],
      "payable": false,
      "stateMutability": "nonpayable",
      "type": "function",
      "signature": "0x6c89a835"
    },
    {
      "constant": false,
      "inputs": [
        {
          "name": "_to",
          "type": "address"
        },
        {
          "name": "_propertyId",
          "type": "uint256"
        }
      ],
      "name": "addTo",
      "outputs": [],
      "payable": false,
      "stateMutability": "nonpayable",
      "type": "function",
      "signature": "0xf29573ff"
    },
    {
      "constant": false,
      "inputs": [
        {
          "name": "_from",
          "type": "address"
        },
        {
          "name": "_propertyId",
          "type": "uint256"
        }
      ],
      "name": "removeFrom",
      "outputs": [],
      "payable": false,
      "stateMutability": "nonpayable",
      "type": "function",
      "signature": "0xc2ad4984"
    }
  ],
  "bytecode": "0x608060405234801561001057600080fd5b50611263806100206000396000f3fe60806040526004361061008e576000357c0100000000000000000000000000000000000000000000000000000000900463ffffffff1680636c89a83514610093578063817743501461016f5780638e72323714610215578063a87d942c14610290578063b2abfb13146102bb578063c2ad498414610376578063d8dbe4c9146103d1578063f29573ff1461043a575b600080fd5b34801561009f57600080fd5b5061016d600480360360608110156100b657600080fd5b8101908080359060200190929190803590602001906401000000008111156100dd57600080fd5b8201836020820111156100ef57600080fd5b8035906020019184600183028401116401000000008311171561011157600080fd5b91908080601f016020809104026020016040519081016040528093929190818152602001838380828437600081840152601f19601f82011690508083019250505050505050919291929080359060200190929190505050610495565b005b34801561017b57600080fd5b506101be6004803603602081101561019257600080fd5b81019080803573ffffffffffffffffffffffffffffffffffffffff16906020019092919050505061058a565b6040518080602001828103825283818151815260200191508051906020019060200280838360005b838110156102015780820151818401526020810190506101e6565b505050509050019250505060405180910390f35b34801561022157600080fd5b5061024e6004803603602081101561023857600080fd5b81019080803590602001909291905050506106cb565b604051808273ffffffffffffffffffffffffffffffffffffffff1673ffffffffffffffffffffffffffffffffffffffff16815260200191505060405180910390f35b34801561029c57600080fd5b506102a56107b2565b6040518082815260200191505060405180910390f35b3480156102c757600080fd5b506102f4600480360360208110156102de57600080fd5b8101908080359060200190929190505050610866565b6040518080602001838152602001828103825284818151815260200191508051906020019080838360005b8381101561033a57808201518184015260208101905061031f565b50505050905090810190601f1680156103675780820380516001836020036101000a031916815260200191505b50935050505060405180910390f35b34801561038257600080fd5b506103cf6004803603604081101561039957600080fd5b81019080803573ffffffffffffffffffffffffffffffffffffffff169060200190929190803590602001909291905050506109e6565b005b3480156103dd57600080fd5b50610420600480360360208110156103f457600080fd5b81019080803573ffffffffffffffffffffffffffffffffffffffff169060200190929190505050610d9f565b604051808215151515815260200191505060405180910390f35b34801561044657600080fd5b506104936004803603604081101561045d57600080fd5b81019080803573ffffffffffffffffffffffffffffffffffffffff16906020019092919080359060200190929190505050610e61565b005b61049d61103c565b73ffffffffffffffffffffffffffffffffffffffff163373ffffffffffffffffffffffffffffffffffffffff1614151561053f576040517f08c379a00000000000000000000000000000000000000000000000000000000081526004018080602001828103825260168152602001807f496e76616c696420436f6e747261637420486f7573650000000000000000000081525060200191505060405180910390fd5b81600260008581526020019081526020016000206000019080519060200190610569929190611145565b50806002600085815260200190815260200160002060010181905550505050565b606061059461103c565b73ffffffffffffffffffffffffffffffffffffffff163373ffffffffffffffffffffffffffffffffffffffff16141515610636576040517f08c379a00000000000000000000000000000000000000000000000000000000081526004018080602001828103825260168152602001807f496e76616c696420436f6e747261637420486f7573650000000000000000000081525060200191505060405180910390fd5b600360008373ffffffffffffffffffffffffffffffffffffffff1673ffffffffffffffffffffffffffffffffffffffff1681526020019081526020016000208054806020026020016040519081016040528092919081815260200182805480156106bf57602002820191906000526020600020905b8154815260200190600101908083116106ab575b50505050509050919050565b60006106d561103c565b73ffffffffffffffffffffffffffffffffffffffff163373ffffffffffffffffffffffffffffffffffffffff16141515610777576040517f08c379a00000000000000000000000000000000000000000000000000000000081526004018080602001828103825260168152602001807f496e76616c696420436f6e747261637420486f7573650000000000000000000081525060200191505060405180910390fd5b6004600083815260200190815260200160002060009054906101000a900473ffffffffffffffffffffffffffffffffffffffff169050919050565b60006107bc61103c565b73ffffffffffffffffffffffffffffffffffffffff163373ffffffffffffffffffffffffffffffffffffffff1614151561085e576040517f08c379a00000000000000000000000000000000000000000000000000000000081526004018080602001828103825260168152602001807f496e76616c696420436f6e747261637420486f7573650000000000000000000081525060200191505060405180910390fd5b600154905090565b6060600061087261103c565b73ffffffffffffffffffffffffffffffffffffffff163373ffffffffffffffffffffffffffffffffffffffff16141515610914576040517f08c379a00000000000000000000000000000000000000000000000000000000081526004018080602001828103825260168152602001807f496e76616c696420436f6e747261637420486f7573650000000000000000000081525060200191505060405180910390fd5b600260008481526020019081526020016000206000016002600085815260200190815260200160002060010154818054600181600116156101000203166002900480601f0160208091040260200160405190810160405280929190818152602001828054600181600116156101000203166002900480156109d65780601f106109ab576101008083540402835291602001916109d6565b820191906000526020600020905b8154815290600101906020018083116109b957829003601f168201915b5050505050915091509150915091565b6109ee61103c565b73ffffffffffffffffffffffffffffffffffffffff163373ffffffffffffffffffffffffffffffffffffffff16141515610a90576040517f08c379a00000000000000000000000000000000000000000000000000000000081526004018080602001828103825260168152602001807f496e76616c696420436f6e747261637420486f7573650000000000000000000081525060200191505060405180910390fd5b6000600560008381526020019081526020016000205490506000610b006001600360008773ffffffffffffffffffffffffffffffffffffffff1673ffffffffffffffffffffffffffffffffffffffff1681526020019081526020016000208054905061112c90919063ffffffff16565b90506000600360008673ffffffffffffffffffffffffffffffffffffffff1673ffffffffffffffffffffffffffffffffffffffff16815260200190815260200160002082815481101515610b5057fe5b9060005260206000200154905060006004600086815260200190815260200160002060006101000a81548173ffffffffffffffffffffffffffffffffffffffff021916908373ffffffffffffffffffffffffffffffffffffffff16021790555080600360008773ffffffffffffffffffffffffffffffffffffffff1673ffffffffffffffffffffffffffffffffffffffff16815260200190815260200160002084815481101515610bfd57fe5b90600052602060002001819055506000600360008773ffffffffffffffffffffffffffffffffffffffff1673ffffffffffffffffffffffffffffffffffffffff16815260200190815260200160002083815481101515610c5957fe5b9060005260206000200181905550600360008673ffffffffffffffffffffffffffffffffffffffff1673ffffffffffffffffffffffffffffffffffffffff168152602001908152602001600020805480919060019003610cb991906111c5565b506000600360008773ffffffffffffffffffffffffffffffffffffffff1673ffffffffffffffffffffffffffffffffffffffff168152602001908152602001600020805490501415610d5157600360008673ffffffffffffffffffffffffffffffffffffffff1673ffffffffffffffffffffffffffffffffffffffff1681526020019081526020016000206000610d5091906111f1565b5b60006005600086815260200190815260200160002081905550826005600084815260200190815260200160002081905550610d976001805461112c90919063ffffffff16565b505050505050565b60008073ffffffffffffffffffffffffffffffffffffffff168273ffffffffffffffffffffffffffffffffffffffff1614158015610e0957508173ffffffffffffffffffffffffffffffffffffffff163373ffffffffffffffffffffffffffffffffffffffff1614155b15610e175760009050610e5c565b816000806101000a81548173ffffffffffffffffffffffffffffffffffffffff021916908373ffffffffffffffffffffffffffffffffffffffff160217905550600190505b919050565b610e6961103c565b73ffffffffffffffffffffffffffffffffffffffff163373ffffffffffffffffffffffffffffffffffffffff16141515610f0b576040517f08c379a00000000000000000000000000000000000000000000000000000000081526004018080602001828103825260168152602001807f496e76616c696420436f6e747261637420486f7573650000000000000000000081525060200191505060405180910390fd5b816004600083815260200190815260200160002060006101000a81548173ffffffffffffffffffffffffffffffffffffffff021916908373ffffffffffffffffffffffffffffffffffffffff1602179055506000600360008473ffffffffffffffffffffffffffffffffffffffff1673ffffffffffffffffffffffffffffffffffffffff168152602001908152602001600020805490509050600360008473ffffffffffffffffffffffffffffffffffffffff1673ffffffffffffffffffffffffffffffffffffffff168152602001908152602001600020829080600181540180825580915050906001820390600052602060002001600090919290919091505550806005600084815260200190815260200160002081905550600160008154809291906001019190505550505050565b60008060009054906101000a900473ffffffffffffffffffffffffffffffffffffffff1673ffffffffffffffffffffffffffffffffffffffff1663ec56a3736040518163ffffffff167c010000000000000000000000000000000000000000000000000000000002815260040180807f686f757365000000000000000000000000000000000000000000000000000000815250602001905060206040518083038186803b1580156110ec57600080fd5b505afa158015611100573d6000803e3d6000fd5b505050506040513d602081101561111657600080fd5b8101908080519060200190929190505050905090565b600082821115151561113a57fe5b818303905092915050565b828054600181600116156101000203166002900490600052602060002090601f016020900481019282601f1061118657805160ff19168380011785556111b4565b828001600101855582156111b4579182015b828111156111b3578251825591602001919060010190611198565b5b5090506111c19190611212565b5090565b8154818355818111156111ec578183600052602060002091820191016111eb9190611212565b5b505050565b508054600082559060005260206000209081019061120f9190611212565b50565b61123491905b80821115611230576000816000905550600101611218565b5090565b9056fea165627a7a7230582034d789528987bd799e5dbc99f4503337711dd6c3e4f53e7fcf82ef2a71e234b10029",
  "source": "pragma solidity <=0.5.0;\r\n//Author: Fadhlan Ridhwanallah\r\n\r\nimport './CMCEnabled.sol';\r\nimport './ContractProvider.sol';\r\nimport './SafeMath.sol';\r\n\r\n//PropertyBase\r\ncontract HouseDB is CMCEnabled {\r\n  using SafeMath for uint256;\r\n\r\n  function getHouse() private view returns (address){\r\n    return ContractProvider(contractManager).contracts('house');\r\n  }\r\n\r\n  uint256 private count;\r\n\r\n  struct House {\r\n    string location;\r\n    bytes32 cryptoKey;\r\n  }\r\n\r\n  //All house store in contract\r\n  mapping(uint256 => House) private houseData;\r\n\r\n  //Stores an array of assets owned by a given account\r\n  mapping(address => uint256[]) private houseOf;\r\n\r\n  //Stores an array of assets owned by a given account\r\n  mapping(uint256 => address) private holderOf;\r\n\r\n  //Stores the index of a house in the `ownerOf` array of its owner\r\n  mapping(uint256 => uint256) private indexOfHouse;\r\n\r\n  modifier onlyHouseContract() {\r\n    require(msg.sender == getHouse(), \"Invalid Contract House\");\r\n    _;\r\n  }\r\n\r\n  function getHolderOf(uint256 _propertyId) public view onlyHouseContract returns(address) {\r\n    return holderOf[_propertyId];\r\n  }\r\n\r\n  function getCount() public view onlyHouseContract returns(uint256) {\r\n    return count;\r\n  }\r\n\r\n  function getHouseOf(address _owner) public view onlyHouseContract returns(uint256[] memory) {\r\n    return houseOf[_owner];\r\n  }\r\n\r\n  function getHouseData(uint256 _propertyId) public view onlyHouseContract returns(string memory, bytes32) {\r\n    return(houseData[_propertyId].location, houseData[_propertyId].cryptoKey);\r\n  }\r\n\r\n  //Internal Setter\r\n  function setHouseData(uint256 _propertyId, string memory _location, bytes32 _cryptoKey) public onlyHouseContract {\r\n    houseData[_propertyId].location = _location;\r\n    houseData[_propertyId].cryptoKey = _cryptoKey;\r\n  }\r\n\r\n  function addTo(address _to, uint256 _propertyId) public onlyHouseContract {\r\n    holderOf[_propertyId] = _to;\r\n\r\n    uint256 length = houseOf[_to].length;\r\n\r\n    houseOf[_to].push(_propertyId);\r\n\r\n    indexOfHouse[_propertyId] = length;\r\n\r\n    count++;\r\n  }\r\n\r\n  function removeFrom(address _from, uint256 _propertyId) public onlyHouseContract {\r\n    uint256 houseIndex = indexOfHouse[_propertyId];\r\n    uint256 lastHouseIndex = houseOf[_from].length.sub(1);\r\n    uint256 lastHouseId = houseOf[_from][lastHouseIndex];\r\n\r\n    holderOf[_propertyId] = address(0x0);\r\n\r\n    // Insert the last house into the position previously occupied by the asset to be removed\r\n    houseOf[_from][houseIndex] = lastHouseId;\r\n\r\n    // Resize the array\r\n    houseOf[_from][lastHouseIndex] = 0;\r\n    houseOf[_from].length--;\r\n\r\n    // Remove the array if no more assets are owned to prevent pollution\r\n    if (houseOf[_from].length == 0) {\r\n      delete houseOf[_from];\r\n    }\r\n\r\n    // Update the index of positions for the asset\r\n    indexOfHouse[_propertyId] = 0;\r\n    indexOfHouse[lastHouseIndex] = houseIndex;\r\n    count.sub(1);\r\n  }\r\n}\r\n",
  "sourcePath": "/Users/fadhlan.ridhwanallah/Documents/Project/TOKOIN/Contract_SmartHouse/contracts/HouseDB.sol",
  "compiler": {
    "name": "solc",
    "version": "0.5.0+commit.1d4f565a.Emscripten.clang"
  },
  "schemaVersion": "3.0.2",
  "updatedAt": "2019-03-09T17:45:35.862Z",
  "devdoc": {
    "methods": {}
  },
  "userdoc": {
    "methods": {}
  }
}