{
  "contractName": "Transaction",
  "abi": [
    {
      "constant": false,
      "inputs": [
        {
          "name": "_contractManager",
          "type": "address"
        }
      ],
      "name": "setContractManager",
      "outputs": [
        {
          "name": "",
          "type": "bool"
        }
      ],
      "payable": false,
      "stateMutability": "nonpayable",
      "type": "function",
      "signature": "0xd8dbe4c9"
    },
    {
      "anonymous": false,
      "inputs": [
        {
          "indexed": true,
          "name": "notary",
          "type": "address"
        },
        {
          "indexed": true,
          "name": "seller",
          "type": "address"
        },
        {
          "indexed": true,
          "name": "buyer",
          "type": "address"
        },
        {
          "indexed": false,
          "name": "propertyId",
          "type": "uint256"
        },
        {
          "indexed": false,
          "name": "amountPrice",
          "type": "uint256"
        }
      ],
      "name": "initiateTransaction",
      "type": "event",
      "signature": "0xe41cd01e1278d4493e08a576f549a0303dfc7d496255df594ab550f1a95095a3"
    },
    {
      "anonymous": false,
      "inputs": [
        {
          "indexed": true,
          "name": "seller",
          "type": "address"
        },
        {
          "indexed": false,
          "name": "amountTransfer",
          "type": "uint256"
        },
        {
          "indexed": false,
          "name": "change",
          "type": "uint256"
        }
      ],
      "name": "sellerPayment",
      "type": "event",
      "signature": "0xb946e13190cf6cacd787d9cf674822e98477b93df6ff9420d621a8dc9402235b"
    },
    {
      "anonymous": false,
      "inputs": [
        {
          "indexed": true,
          "name": "buyer",
          "type": "address"
        },
        {
          "indexed": false,
          "name": "amountTransfer",
          "type": "uint256"
        },
        {
          "indexed": false,
          "name": "change",
          "type": "uint256"
        }
      ],
      "name": "buyerPayment",
      "type": "event",
      "signature": "0x7c4ba6f8ea34ffaa845e4177ad74fe2cd59891d3dccaf453e08d1e6dd1ff4133"
    },
    {
      "anonymous": false,
      "inputs": [
        {
          "indexed": true,
          "name": "notary",
          "type": "address"
        },
        {
          "indexed": true,
          "name": "seller",
          "type": "address"
        },
        {
          "indexed": true,
          "name": "buyer",
          "type": "address"
        },
        {
          "indexed": false,
          "name": "propertyId",
          "type": "uint256"
        },
        {
          "indexed": false,
          "name": "amountPrice",
          "type": "uint256"
        }
      ],
      "name": "settledTransaction",
      "type": "event",
      "signature": "0xa52309e0f2f68c0e142369ef1123399dce368c2360fdcd23fc52e10ff507a938"
    },
    {
      "anonymous": false,
      "inputs": [
        {
          "indexed": true,
          "name": "canceller",
          "type": "address"
        },
        {
          "indexed": false,
          "name": "propertyId",
          "type": "uint256"
        }
      ],
      "name": "cancelTransaction",
      "type": "event",
      "signature": "0xa86658ab1c86f39f8fb2b1af8bc91244266ccea00751bcb1b7ddd92f3fe47ec0"
    },
    {
      "constant": true,
      "inputs": [
        {
          "name": "_propertyId",
          "type": "uint256"
        }
      ],
      "name": "isTransactionExist",
      "outputs": [
        {
          "name": "",
          "type": "bool"
        }
      ],
      "payable": false,
      "stateMutability": "view",
      "type": "function",
      "signature": "0x64f62ad5"
    },
    {
      "constant": true,
      "inputs": [
        {
          "name": "_propertyId",
          "type": "uint256"
        }
      ],
      "name": "notaryOf",
      "outputs": [
        {
          "name": "",
          "type": "address"
        }
      ],
      "payable": false,
      "stateMutability": "view",
      "type": "function",
      "signature": "0x438e66cb"
    },
    {
      "constant": true,
      "inputs": [
        {
          "name": "_propertyId",
          "type": "uint256"
        }
      ],
      "name": "buyerOf",
      "outputs": [
        {
          "name": "",
          "type": "address"
        }
      ],
      "payable": false,
      "stateMutability": "view",
      "type": "function",
      "signature": "0xda0ade50"
    },
    {
      "constant": true,
      "inputs": [
        {
          "name": "_propertyId",
          "type": "uint256"
        }
      ],
      "name": "sellerOf",
      "outputs": [
        {
          "name": "",
          "type": "address"
        }
      ],
      "payable": false,
      "stateMutability": "view",
      "type": "function",
      "signature": "0xe05c5a83"
    },
    {
      "constant": true,
      "inputs": [
        {
          "name": "_propertyId",
          "type": "uint256"
        }
      ],
      "name": "ipfsHashOf",
      "outputs": [
        {
          "name": "",
          "type": "string"
        }
      ],
      "payable": false,
      "stateMutability": "view",
      "type": "function",
      "signature": "0x6549f3fc"
    },
    {
      "constant": true,
      "inputs": [
        {
          "name": "_propertyId",
          "type": "uint256"
        }
      ],
      "name": "notaryPriceOf",
      "outputs": [
        {
          "name": "",
          "type": "uint256"
        }
      ],
      "payable": false,
      "stateMutability": "view",
      "type": "function",
      "signature": "0xd6d894da"
    },
    {
      "constant": true,
      "inputs": [
        {
          "name": "_propertyId",
          "type": "uint256"
        }
      ],
      "name": "amountPriceOf",
      "outputs": [
        {
          "name": "",
          "type": "uint256"
        }
      ],
      "payable": false,
      "stateMutability": "view",
      "type": "function",
      "signature": "0x69f19865"
    },
    {
      "constant": true,
      "inputs": [
        {
          "name": "_propertyId",
          "type": "uint256"
        }
      ],
      "name": "depositAmountOf",
      "outputs": [
        {
          "name": "",
          "type": "uint256"
        }
      ],
      "payable": false,
      "stateMutability": "view",
      "type": "function",
      "signature": "0x3f9fe05b"
    },
    {
      "constant": true,
      "inputs": [
        {
          "name": "_propertyId",
          "type": "uint256"
        }
      ],
      "name": "amountPaymentSellerOf",
      "outputs": [
        {
          "name": "",
          "type": "uint256"
        }
      ],
      "payable": false,
      "stateMutability": "view",
      "type": "function",
      "signature": "0xaaba387d"
    },
    {
      "constant": true,
      "inputs": [
        {
          "name": "_propertyId",
          "type": "uint256"
        }
      ],
      "name": "amountPaymentBuyerOf",
      "outputs": [
        {
          "name": "",
          "type": "uint256"
        }
      ],
      "payable": false,
      "stateMutability": "view",
      "type": "function",
      "signature": "0xd96b5a1e"
    },
    {
      "constant": true,
      "inputs": [
        {
          "name": "_propertyId",
          "type": "uint256"
        }
      ],
      "name": "stateOf",
      "outputs": [
        {
          "name": "",
          "type": "uint8"
        }
      ],
      "payable": false,
      "stateMutability": "view",
      "type": "function",
      "signature": "0x131a7e24"
    },
    {
      "constant": false,
      "inputs": [
        {
          "name": "_propertyId",
          "type": "uint256"
        },
        {
          "name": "_notary",
          "type": "address"
        },
        {
          "name": "_buyer",
          "type": "address"
        },
        {
          "name": "_seller",
          "type": "address"
        },
        {
          "name": "_ipfsHash",
          "type": "string"
        },
        {
          "name": "_notaryPrice",
          "type": "uint256"
        },
        {
          "name": "_amountPrice",
          "type": "uint256"
        },
        {
          "name": "_depositAmount",
          "type": "uint256"
        }
      ],
      "name": "createTransaction",
      "outputs": [],
      "payable": false,
      "stateMutability": "nonpayable",
      "type": "function",
      "signature": "0x1ab5701b"
    },
    {
      "constant": false,
      "inputs": [
        {
          "name": "_propertyId",
          "type": "uint256"
        }
      ],
      "name": "sellerTransaction",
      "outputs": [],
      "payable": true,
      "stateMutability": "payable",
      "type": "function",
      "signature": "0x3ec2033e"
    },
    {
      "constant": false,
      "inputs": [
        {
          "name": "_propertyId",
          "type": "uint256"
        }
      ],
      "name": "buyerTransaction",
      "outputs": [],
      "payable": true,
      "stateMutability": "payable",
      "type": "function",
      "signature": "0x1a2db9a1"
    },
    {
      "constant": false,
      "inputs": [
        {
          "name": "_propertyId",
          "type": "uint256"
        }
      ],
      "name": "completeTransaction",
      "outputs": [],
      "payable": false,
      "stateMutability": "nonpayable",
      "type": "function",
      "signature": "0xf5e83e17"
    },
    {
      "constant": false,
      "inputs": [
        {
          "name": "_canceller",
          "type": "address"
        },
        {
          "name": "_propertyId",
          "type": "uint256"
        }
      ],
      "name": "abortTransaction",
      "outputs": [],
      "payable": false,
      "stateMutability": "nonpayable",
      "type": "function",
      "signature": "0xf89b5c91"
    }
  ],
  "bytecode": "0x608060405234801561001057600080fd5b50612d01806100206000396000f3fe6080604052600436106100f1576000357c0100000000000000000000000000000000000000000000000000000000900463ffffffff168063131a7e24146100f65780631a2db9a1146101535780631ab5701b146101815780633ec2033e146102905780633f9fe05b146102be578063438e66cb1461030d57806364f62ad5146103885780636549f3fc146103db57806369f198651461048f578063aaba387d146104de578063d6d894da1461052d578063d8dbe4c91461057c578063d96b5a1e146105e5578063da0ade5014610634578063e05c5a83146106af578063f5e83e171461072a578063f89b5c9114610765575b600080fd5b34801561010257600080fd5b5061012f6004803603602081101561011957600080fd5b81019080803590602001909291905050506107c0565b6040518082600481111561013f57fe5b60ff16815260200191505060405180910390f35b61017f6004803603602081101561016957600080fd5b81019080803590602001909291905050506108f4565b005b34801561018d57600080fd5b5061028e60048036036101008110156101a557600080fd5b8101908080359060200190929190803573ffffffffffffffffffffffffffffffffffffffff169060200190929190803573ffffffffffffffffffffffffffffffffffffffff169060200190929190803573ffffffffffffffffffffffffffffffffffffffff1690602001909291908035906020019064010000000081111561022c57600080fd5b82018360208201111561023e57600080fd5b8035906020019184600183028401116401000000008311171561026057600080fd5b9091929391929390803590602001909291908035906020019092919080359060200190929190505050610bd9565b005b6102bc600480360360208110156102a657600080fd5b8101908080359060200190929190505050610fd2565b005b3480156102ca57600080fd5b506102f7600480360360208110156102e157600080fd5b81019080803590602001909291905050506112b7565b6040518082815260200191505060405180910390f35b34801561031957600080fd5b506103466004803603602081101561033057600080fd5b810190808035906020019092919050505061146a565b604051808273ffffffffffffffffffffffffffffffffffffffff1673ffffffffffffffffffffffffffffffffffffffff16815260200191505060405180910390f35b34801561039457600080fd5b506103c1600480360360208110156103ab57600080fd5b810190808035906020019092919050505061161d565b604051808215151515815260200191505060405180910390f35b3480156103e757600080fd5b50610414600480360360208110156103fe57600080fd5b81019080803590602001909291905050506116d5565b6040518080602001828103825283818151815260200191508051906020019080838360005b83811015610454578082015181840152602081019050610439565b50505050905090810190601f1680156104815780820380516001836020036101000a031916815260200191505b509250505060405180910390f35b34801561049b57600080fd5b506104c8600480360360208110156104b257600080fd5b81019080803590602001909291905050506118de565b6040518082815260200191505060405180910390f35b3480156104ea57600080fd5b506105176004803603602081101561050157600080fd5b8101908080359060200190929190505050611a91565b6040518082815260200191505060405180910390f35b34801561053957600080fd5b506105666004803603602081101561055057600080fd5b8101908080359060200190929190505050611c44565b6040518082815260200191505060405180910390f35b34801561058857600080fd5b506105cb6004803603602081101561059f57600080fd5b81019080803573ffffffffffffffffffffffffffffffffffffffff169060200190929190505050611df7565b604051808215151515815260200191505060405180910390f35b3480156105f157600080fd5b5061061e6004803603602081101561060857600080fd5b8101908080359060200190929190505050611eb9565b6040518082815260200191505060405180910390f35b34801561064057600080fd5b5061066d6004803603602081101561065757600080fd5b810190808035906020019092919050505061206c565b604051808273ffffffffffffffffffffffffffffffffffffffff1673ffffffffffffffffffffffffffffffffffffffff16815260200191505060405180910390f35b3480156106bb57600080fd5b506106e8600480360360208110156106d257600080fd5b810190808035906020019092919050505061221f565b604051808273ffffffffffffffffffffffffffffffffffffffff1673ffffffffffffffffffffffffffffffffffffffff16815260200191505060405180910390f35b34801561073657600080fd5b506107636004803603602081101561074d57600080fd5b81019080803590602001909291905050506123d2565b005b34801561077157600080fd5b506107be6004803603604081101561078857600080fd5b81019080803573ffffffffffffffffffffffffffffffffffffffff169060200190929190803590602001909291905050506126ed565b005b60006107ca612a3f565b151561083e576040517f08c379a000000000000000000000000000000000000000000000000000000000815260040180806020018281038252601c8152602001807f496e76616c696420536d61727420486f75736520436f6e74726163740000000081525060200191505060405180910390fd5b610846612b62565b73ffffffffffffffffffffffffffffffffffffffff1663ac3cfaf4836040518263ffffffff167c01000000000000000000000000000000000000000000000000000000000281526004018082815260200191505060206040518083038186803b1580156108b257600080fd5b505afa1580156108c6573d6000803e3d6000fd5b505050506040513d60208110156108dc57600080fd5b81019080805190602001909291905050509050919050565b6108fc612a3f565b1515610970576040517f08c379a000000000000000000000000000000000000000000000000000000000815260040180806020018281038252601c8152602001807f496e76616c696420536d61727420486f75736520436f6e74726163740000000081525060200191505060405180910390fd5b8061097a8161161d565b15156109ee576040517f08c379a00000000000000000000000000000000000000000000000000000000081526004018080602001828103825260158152602001807f5472616e73616374696f6e206e6f74206578697374000000000000000000000081525060200191505060405180910390fd5b60006109f98361206c565b90506000610a0684611eb9565b9050348111151515610a80576040517f08c379a00000000000000000000000000000000000000000000000000000000081526004018080602001828103825260198152602001807f496e76616c696420616d6f756e74206f66207061796d656e740000000000000081525060200191505060405180910390fd5b600081341115610ad75781340390508273ffffffffffffffffffffffffffffffffffffffff166108fc829081150290604051600060405180830381858888f19350505050158015610ad5573d6000803e3d6000fd5b505b610adf612b62565b73ffffffffffffffffffffffffffffffffffffffff1663734a90c78660026040518363ffffffff167c010000000000000000000000000000000000000000000000000000000002815260040180838152602001826004811115610b3e57fe5b60ff16815260200192505050600060405180830381600087803b158015610b6457600080fd5b505af1158015610b78573d6000803e3d6000fd5b505050508273ffffffffffffffffffffffffffffffffffffffff167f7c4ba6f8ea34ffaa845e4177ad74fe2cd59891d3dccaf453e08d1e6dd1ff41333483604051808381526020018281526020019250505060405180910390a25050505050565b610be1612a3f565b1515610c55576040517f08c379a000000000000000000000000000000000000000000000000000000000815260040180806020018281038252601c8152602001807f496e76616c696420536d61727420486f75736520436f6e74726163740000000081525060200191505060405180910390fd5b610c69606483612c5290919063ffffffff16565b8311151515610ce0576040517f08c379a00000000000000000000000000000000000000000000000000000000081526004018080602001828103825260148152602001807f496e76616c6964206e6f7461727920707269636500000000000000000000000081525060200191505060405180910390fd5b6000610d2e610cf9600286612c5290919063ffffffff16565b610d206064610d12600588612c6890919063ffffffff16565b612c5290919063ffffffff16565b612ca090919063ffffffff16565b90506000610da2610d488486612cbc90919063ffffffff16565b610d94610d5f600289612c5290919063ffffffff16565b610d866064610d7860058b612c6890919063ffffffff16565b612c5290919063ffffffff16565b612ca090919063ffffffff16565b612ca090919063ffffffff16565b9050610dac612b62565b73ffffffffffffffffffffffffffffffffffffffff16638c5ab6908c8c8c8c8c8c8c8c8c8c8c60006040518d63ffffffff167c0100000000000000000000000000000000000000000000000000000000028152600401808d81526020018c73ffffffffffffffffffffffffffffffffffffffff1673ffffffffffffffffffffffffffffffffffffffff1681526020018b73ffffffffffffffffffffffffffffffffffffffff1673ffffffffffffffffffffffffffffffffffffffff1681526020018a73ffffffffffffffffffffffffffffffffffffffff1673ffffffffffffffffffffffffffffffffffffffff16815260200180602001888152602001878152602001868152602001858152602001848152602001836004811115610ecd57fe5b60ff16815260200182810382528a8a82818152602001925080828437600081840152601f19601f8201169050808301925050509d5050505050505050505050505050600060405180830381600087803b158015610f2957600080fd5b505af1158015610f3d573d6000803e3d6000fd5b505050508873ffffffffffffffffffffffffffffffffffffffff168873ffffffffffffffffffffffffffffffffffffffff168b73ffffffffffffffffffffffffffffffffffffffff167fe41cd01e1278d4493e08a576f549a0303dfc7d496255df594ab550f1a95095a38e88604051808381526020018281526020019250505060405180910390a45050505050505050505050565b610fda612a3f565b151561104e576040517f08c379a000000000000000000000000000000000000000000000000000000000815260040180806020018281038252601c8152602001807f496e76616c696420536d61727420486f75736520436f6e74726163740000000081525060200191505060405180910390fd5b806110588161161d565b15156110cc576040517f08c379a00000000000000000000000000000000000000000000000000000000081526004018080602001828103825260158152602001807f5472616e73616374696f6e206e6f74206578697374000000000000000000000081525060200191505060405180910390fd5b60006110d78361221f565b905060006110e484611a91565b905034811115151561115e576040517f08c379a00000000000000000000000000000000000000000000000000000000081526004018080602001828103825260198152602001807f496e76616c696420616d6f756e74206f66207061796d656e740000000000000081525060200191505060405180910390fd5b6000813411156111b55781340390508273ffffffffffffffffffffffffffffffffffffffff166108fc829081150290604051600060405180830381858888f193505050501580156111b3573d6000803e3d6000fd5b505b6111bd612b62565b73ffffffffffffffffffffffffffffffffffffffff1663734a90c78660016040518363ffffffff167c01000000000000000000000000000000000000000000000000000000000281526004018083815260200182600481111561121c57fe5b60ff16815260200192505050600060405180830381600087803b15801561124257600080fd5b505af1158015611256573d6000803e3d6000fd5b505050508273ffffffffffffffffffffffffffffffffffffffff167fb946e13190cf6cacd787d9cf674822e98477b93df6ff9420d621a8dc9402235b3483604051808381526020018281526020019250505060405180910390a25050505050565b60006112c1612a3f565b1515611335576040517f08c379a000000000000000000000000000000000000000000000000000000000815260040180806020018281038252601c8152602001807f496e76616c696420536d61727420486f75736520436f6e74726163740000000081525060200191505060405180910390fd5b8161133f8161161d565b15156113b3576040517f08c379a00000000000000000000000000000000000000000000000000000000081526004018080602001828103825260158152602001807f5472616e73616374696f6e206e6f74206578697374000000000000000000000081525060200191505060405180910390fd5b6113bb612b62565b73ffffffffffffffffffffffffffffffffffffffff16635d102a8c846040518263ffffffff167c01000000000000000000000000000000000000000000000000000000000281526004018082815260200191505060206040518083038186803b15801561142757600080fd5b505afa15801561143b573d6000803e3d6000fd5b505050506040513d602081101561145157600080fd5b8101908080519060200190929190505050915050919050565b6000611474612a3f565b15156114e8576040517f08c379a000000000000000000000000000000000000000000000000000000000815260040180806020018281038252601c8152602001807f496e76616c696420536d61727420486f75736520436f6e74726163740000000081525060200191505060405180910390fd5b816114f28161161d565b1515611566576040517f08c379a00000000000000000000000000000000000000000000000000000000081526004018080602001828103825260158152602001807f5472616e73616374696f6e206e6f74206578697374000000000000000000000081525060200191505060405180910390fd5b61156e612b62565b73ffffffffffffffffffffffffffffffffffffffff166330d28f44846040518263ffffffff167c01000000000000000000000000000000000000000000000000000000000281526004018082815260200191505060206040518083038186803b1580156115da57600080fd5b505afa1580156115ee573d6000803e3d6000fd5b505050506040513d602081101561160457600080fd5b8101908080519060200190929190505050915050919050565b6000611627612b62565b73ffffffffffffffffffffffffffffffffffffffff166364f62ad5836040518263ffffffff167c01000000000000000000000000000000000000000000000000000000000281526004018082815260200191505060206040518083038186803b15801561169357600080fd5b505afa1580156116a7573d6000803e3d6000fd5b505050506040513d60208110156116bd57600080fd5b81019080805190602001909291905050509050919050565b60606116df612a3f565b1515611753576040517f08c379a000000000000000000000000000000000000000000000000000000000815260040180806020018281038252601c8152602001807f496e76616c696420536d61727420486f75736520436f6e74726163740000000081525060200191505060405180910390fd5b8161175d8161161d565b15156117d1576040517f08c379a00000000000000000000000000000000000000000000000000000000081526004018080602001828103825260158152602001807f5472616e73616374696f6e206e6f74206578697374000000000000000000000081525060200191505060405180910390fd5b6117d9612b62565b73ffffffffffffffffffffffffffffffffffffffff1663da75c3d3846040518263ffffffff167c01000000000000000000000000000000000000000000000000000000000281526004018082815260200191505060006040518083038186803b15801561184557600080fd5b505afa158015611859573d6000803e3d6000fd5b505050506040513d6000823e3d601f19601f82011682018060405250602081101561188357600080fd5b81019080805164010000000081111561189b57600080fd5b828101905060208101848111156118b157600080fd5b81518560018202830111640100000000821117156118ce57600080fd5b5050929190505050915050919050565b60006118e8612a3f565b151561195c576040517f08c379a000000000000000000000000000000000000000000000000000000000815260040180806020018281038252601c8152602001807f496e76616c696420536d61727420486f75736520436f6e74726163740000000081525060200191505060405180910390fd5b816119668161161d565b15156119da576040517f08c379a00000000000000000000000000000000000000000000000000000000081526004018080602001828103825260158152602001807f5472616e73616374696f6e206e6f74206578697374000000000000000000000081525060200191505060405180910390fd5b6119e2612b62565b73ffffffffffffffffffffffffffffffffffffffff16633b2df2bc846040518263ffffffff167c01000000000000000000000000000000000000000000000000000000000281526004018082815260200191505060206040518083038186803b158015611a4e57600080fd5b505afa158015611a62573d6000803e3d6000fd5b505050506040513d6020811015611a7857600080fd5b8101908080519060200190929190505050915050919050565b6000611a9b612a3f565b1515611b0f576040517f08c379a000000000000000000000000000000000000000000000000000000000815260040180806020018281038252601c8152602001807f496e76616c696420536d61727420486f75736520436f6e74726163740000000081525060200191505060405180910390fd5b81611b198161161d565b1515611b8d576040517f08c379a00000000000000000000000000000000000000000000000000000000081526004018080602001828103825260158152602001807f5472616e73616374696f6e206e6f74206578697374000000000000000000000081525060200191505060405180910390fd5b611b95612b62565b73ffffffffffffffffffffffffffffffffffffffff166331400c48846040518263ffffffff167c01000000000000000000000000000000000000000000000000000000000281526004018082815260200191505060206040518083038186803b158015611c0157600080fd5b505afa158015611c15573d6000803e3d6000fd5b505050506040513d6020811015611c2b57600080fd5b8101908080519060200190929190505050915050919050565b6000611c4e612a3f565b1515611cc2576040517f08c379a000000000000000000000000000000000000000000000000000000000815260040180806020018281038252601c8152602001807f496e76616c696420536d61727420486f75736520436f6e74726163740000000081525060200191505060405180910390fd5b81611ccc8161161d565b1515611d40576040517f08c379a00000000000000000000000000000000000000000000000000000000081526004018080602001828103825260158152602001807f5472616e73616374696f6e206e6f74206578697374000000000000000000000081525060200191505060405180910390fd5b611d48612b62565b73ffffffffffffffffffffffffffffffffffffffff16638d2416eb846040518263ffffffff167c01000000000000000000000000000000000000000000000000000000000281526004018082815260200191505060206040518083038186803b158015611db457600080fd5b505afa158015611dc8573d6000803e3d6000fd5b505050506040513d6020811015611dde57600080fd5b8101908080519060200190929190505050915050919050565b60008073ffffffffffffffffffffffffffffffffffffffff168273ffffffffffffffffffffffffffffffffffffffff1614158015611e6157508173ffffffffffffffffffffffffffffffffffffffff163373ffffffffffffffffffffffffffffffffffffffff1614155b15611e6f5760009050611eb4565b816000806101000a81548173ffffffffffffffffffffffffffffffffffffffff021916908373ffffffffffffffffffffffffffffffffffffffff160217905550600190505b919050565b6000611ec3612a3f565b1515611f37576040517f08c379a000000000000000000000000000000000000000000000000000000000815260040180806020018281038252601c8152602001807f496e76616c696420536d61727420486f75736520436f6e74726163740000000081525060200191505060405180910390fd5b81611f418161161d565b1515611fb5576040517f08c379a00000000000000000000000000000000000000000000000000000000081526004018080602001828103825260158152602001807f5472616e73616374696f6e206e6f74206578697374000000000000000000000081525060200191505060405180910390fd5b611fbd612b62565b73ffffffffffffffffffffffffffffffffffffffff16636047e1f8846040518263ffffffff167c01000000000000000000000000000000000000000000000000000000000281526004018082815260200191505060206040518083038186803b15801561202957600080fd5b505afa15801561203d573d6000803e3d6000fd5b505050506040513d602081101561205357600080fd5b8101908080519060200190929190505050915050919050565b6000612076612a3f565b15156120ea576040517f08c379a000000000000000000000000000000000000000000000000000000000815260040180806020018281038252601c8152602001807f496e76616c696420536d61727420486f75736520436f6e74726163740000000081525060200191505060405180910390fd5b816120f48161161d565b1515612168576040517f08c379a00000000000000000000000000000000000000000000000000000000081526004018080602001828103825260158152602001807f5472616e73616374696f6e206e6f74206578697374000000000000000000000081525060200191505060405180910390fd5b612170612b62565b73ffffffffffffffffffffffffffffffffffffffff166305f3de4f846040518263ffffffff167c01000000000000000000000000000000000000000000000000000000000281526004018082815260200191505060206040518083038186803b1580156121dc57600080fd5b505afa1580156121f0573d6000803e3d6000fd5b505050506040513d602081101561220657600080fd5b8101908080519060200190929190505050915050919050565b6000612229612a3f565b151561229d576040517f08c379a000000000000000000000000000000000000000000000000000000000815260040180806020018281038252601c8152602001807f496e76616c696420536d61727420486f75736520436f6e74726163740000000081525060200191505060405180910390fd5b816122a78161161d565b151561231b576040517f08c379a00000000000000000000000000000000000000000000000000000000081526004018080602001828103825260158152602001807f5472616e73616374696f6e206e6f74206578697374000000000000000000000081525060200191505060405180910390fd5b612323612b62565b73ffffffffffffffffffffffffffffffffffffffff16638f194b70846040518263ffffffff167c01000000000000000000000000000000000000000000000000000000000281526004018082815260200191505060206040518083038186803b15801561238f57600080fd5b505afa1580156123a3573d6000803e3d6000fd5b505050506040513d60208110156123b957600080fd5b8101908080519060200190929190505050915050919050565b6123da612a3f565b151561244e576040517f08c379a000000000000000000000000000000000000000000000000000000000815260040180806020018281038252601c8152602001807f496e76616c696420536d61727420486f75736520436f6e74726163740000000081525060200191505060405180910390fd5b806124588161161d565b15156124cc576040517f08c379a00000000000000000000000000000000000000000000000000000000081526004018080602001828103825260158152602001807f5472616e73616374696f6e206e6f74206578697374000000000000000000000081525060200191505060405180910390fd5b60006124d78361146a565b905060006124e48461221f565b905060006124f18561206c565b905060006124fe86611c44565b9050600061250b876118de565b90506000612518886112b7565b90508573ffffffffffffffffffffffffffffffffffffffff166108fc849081150290604051600060405180830381858888f19350505050158015612560573d6000803e3d6000fd5b508473ffffffffffffffffffffffffffffffffffffffff166108fc61258e8385612cbc90919063ffffffff16565b9081150290604051600060405180830381858888f193505050501580156125b9573d6000803e3d6000fd5b506125c2612b62565b73ffffffffffffffffffffffffffffffffffffffff1663734a90c78960036040518363ffffffff167c01000000000000000000000000000000000000000000000000000000000281526004018083815260200182600481111561262157fe5b60ff16815260200192505050600060405180830381600087803b15801561264757600080fd5b505af115801561265b573d6000803e3d6000fd5b505050508373ffffffffffffffffffffffffffffffffffffffff168573ffffffffffffffffffffffffffffffffffffffff168773ffffffffffffffffffffffffffffffffffffffff167fa52309e0f2f68c0e142369ef1123399dce368c2360fdcd23fc52e10ff507a9388b86604051808381526020018281526020019250505060405180910390a45050505050505050565b6126f5612a3f565b1515612769576040517f08c379a000000000000000000000000000000000000000000000000000000000815260040180806020018281038252601c8152602001807f496e76616c696420536d61727420486f75736520436f6e74726163740000000081525060200191505060405180910390fd5b806127738161161d565b15156127e7576040517f08c379a00000000000000000000000000000000000000000000000000000000081526004018080602001828103825260158152602001807f5472616e73616374696f6e206e6f74206578697374000000000000000000000081525060200191505060405180910390fd5b60006127f2836107c0565b905060006127ff8461221f565b9050600061280c8561206c565b9050600061281986611a91565b90506001600481111561282857fe5b84600481111561283457fe5b1415612886578273ffffffffffffffffffffffffffffffffffffffff166108fc829081150290604051600060405180830381858888f19350505050158015612880573d6000803e3d6000fd5b50612943565b6002600481111561289357fe5b84600481111561289f57fe5b14156129425760006128b087611eb9565b90508373ffffffffffffffffffffffffffffffffffffffff166108fc839081150290604051600060405180830381858888f193505050501580156128f8573d6000803e3d6000fd5b508273ffffffffffffffffffffffffffffffffffffffff166108fc829081150290604051600060405180830381858888f1935050505015801561293f573d6000803e3d6000fd5b50505b5b61294b612b62565b73ffffffffffffffffffffffffffffffffffffffff1663734a90c78760046040518363ffffffff167c0100000000000000000000000000000000000000000000000000000000028152600401808381526020018260048111156129aa57fe5b60ff16815260200192505050600060405180830381600087803b1580156129d057600080fd5b505af11580156129e4573d6000803e3d6000fd5b505050508673ffffffffffffffffffffffffffffffffffffffff167fa86658ab1c86f39f8fb2b1af8bc91244266ccea00751bcb1b7ddd92f3fe47ec0876040518082815260200191505060405180910390a250505050505050565b6000806000809054906101000a900473ffffffffffffffffffffffffffffffffffffffff1673ffffffffffffffffffffffffffffffffffffffff1663ec56a3736040518163ffffffff167c010000000000000000000000000000000000000000000000000000000002815260040180807f736d617274686f75736500000000000000000000000000000000000000000000815250602001905060206040518083038186803b158015612af057600080fd5b505afa158015612b04573d6000803e3d6000fd5b505050506040513d6020811015612b1a57600080fd5b810190808051906020019092919050505090508073ffffffffffffffffffffffffffffffffffffffff163373ffffffffffffffffffffffffffffffffffffffff161491505090565b60008060009054906101000a900473ffffffffffffffffffffffffffffffffffffffff1673ffffffffffffffffffffffffffffffffffffffff1663ec56a3736040518163ffffffff167c010000000000000000000000000000000000000000000000000000000002815260040180807f7472616e73616374696f6e646200000000000000000000000000000000000000815250602001905060206040518083038186803b158015612c1257600080fd5b505afa158015612c26573d6000803e3d6000fd5b505050506040513d6020811015612c3c57600080fd5b8101908080519060200190929190505050905090565b60008183811515612c5f57fe5b04905092915050565b600080831415612c7b5760009050612c9a565b8183029050818382811515612c8c57fe5b04141515612c9657fe5b8090505b92915050565b60008183019050828110151515612cb357fe5b80905092915050565b6000828211151515612cca57fe5b81830390509291505056fea165627a7a72305820c28c613ced121a26c0e95857f33cbb0224e9319b9b1935c3d19e0a61273d28b60029",
  "source": "pragma solidity <=0.5.0;\r\n//Author: Fadhlan Ridhwanallah\r\n\r\nimport './ContractProvider.sol';\r\nimport './SmartHouseEnabled.sol';\r\nimport './TransactionDB.sol';\r\nimport './SafeMath.sol';\r\n\r\n//PropertyBase\r\ncontract Transaction is SmartHouseEnabled {\r\n  using SafeMath for uint256;\r\n\r\n  function getTransactionDB() private view returns (address){\r\n    return ContractProvider(contractManager).contracts('transactiondb');\r\n  }\r\n\r\n  //Events\r\n  event initiateTransaction(address  indexed notary, address indexed seller, address indexed buyer, uint256 propertyId, uint256 amountPrice);\r\n  event sellerPayment(address indexed seller, uint256 amountTransfer, uint256 change);\r\n  event buyerPayment(address indexed buyer, uint256 amountTransfer, uint256 change);\r\n  event settledTransaction(address indexed notary, address indexed seller, address indexed buyer, uint256 propertyId, uint256 amountPrice);\r\n  event cancelTransaction(address indexed canceller, uint256 propertyId);\r\n\r\n  //Modifier and Validate Function\r\n  modifier onlySmartHouse() {\r\n    require(isSmartHouse(), \"Invalid Smart House Contract\");\r\n    _;\r\n  }\r\n\r\n  modifier onlyTransactionExist(uint256 _propertyId) {\r\n    require(isTransactionExist(_propertyId), \"Transaction not exist\");\r\n    _;\r\n  }\r\n\r\n  function isTransactionExist(uint256 _propertyId) public view returns(bool) {\r\n    return TransactionDB(getTransactionDB()).isTransactionExist(_propertyId);\r\n  }\r\n\r\n  //Getter\r\n  function notaryOf(uint256 _propertyId) public view onlySmartHouse onlyTransactionExist(_propertyId) returns (address payable) {\r\n    return TransactionDB(getTransactionDB()).getNotaryOf(_propertyId);\r\n  }\r\n\r\n  function buyerOf(uint256 _propertyId) public view onlySmartHouse onlyTransactionExist(_propertyId) returns (address payable) {\r\n    return TransactionDB(getTransactionDB()).getBuyerOf(_propertyId);\r\n  }\r\n\r\n  function sellerOf(uint256 _propertyId) public view onlySmartHouse onlyTransactionExist(_propertyId) returns (address payable) {\r\n    return TransactionDB(getTransactionDB()).getSellerOf(_propertyId);\r\n  }\r\n\r\n  function ipfsHashOf(uint256 _propertyId) public view onlySmartHouse onlyTransactionExist(_propertyId) returns (string memory) {\r\n    return TransactionDB(getTransactionDB()).getIpfsHashOf(_propertyId);\r\n  }\r\n\r\n  function notaryPriceOf(uint256 _propertyId) public view onlySmartHouse onlyTransactionExist(_propertyId) returns (uint256) {\r\n    return TransactionDB(getTransactionDB()).getNotaryPriceOf(_propertyId);\r\n  }\r\n\r\n  function amountPriceOf(uint256 _propertyId) public view onlySmartHouse onlyTransactionExist(_propertyId) returns (uint256) {\r\n    return TransactionDB(getTransactionDB()).getAmountPriceOf(_propertyId);\r\n  }\r\n\r\n  function depositAmountOf(uint256 _propertyId) public view onlySmartHouse onlyTransactionExist(_propertyId) returns (uint256) {\r\n    return TransactionDB(getTransactionDB()).getDepositAmountOf(_propertyId);\r\n  }\r\n\r\n  function amountPaymentSellerOf(uint256 _propertyId) public view onlySmartHouse onlyTransactionExist(_propertyId) returns (uint256) {\r\n    return TransactionDB(getTransactionDB()).getAmountPaymentSellerOf(_propertyId);\r\n  }\r\n\r\n  function amountPaymentBuyerOf(uint256 _propertyId) public view onlySmartHouse onlyTransactionExist(_propertyId) returns (uint256) {\r\n    return TransactionDB(getTransactionDB()).getAmountPaymentBuyerOf(_propertyId);\r\n  }\r\n\r\n  function stateOf(uint256 _propertyId) public view onlySmartHouse returns (TransactionDB.State) {\r\n    return TransactionDB(getTransactionDB()).getStateOf(_propertyId);\r\n  }\r\n\r\n  function createTransaction(uint256 _propertyId, address payable _notary, address payable _buyer, address payable _seller, string calldata _ipfsHash, uint256 _notaryPrice,\r\n                             uint256 _amountPrice, uint256 _depositAmount)\r\n  external onlySmartHouse {\r\n    require(_notaryPrice <= _amountPrice.div(100), \"Invalid notary price\");\r\n\r\n    uint256 _amountPaymentSeller = ((_amountPrice.mul(5)).div(100)).add((_notaryPrice.div(2)));\r\n    uint256 _amountPaymentBuyer = (((_amountPrice.mul(5)).div(100)).add((_notaryPrice.div(2)))).add(_amountPrice.sub(_depositAmount));\r\n\r\n    TransactionDB(getTransactionDB()).setTransaction(_propertyId, _notary, _buyer, _seller, _ipfsHash,\r\n      _notaryPrice, _amountPrice, _depositAmount, _amountPaymentSeller, _amountPaymentBuyer, TransactionDB.State.Created);\r\n\r\n    emit initiateTransaction(_notary, _seller, _buyer, _propertyId, _amountPrice);\r\n  }\r\n\r\n  function sellerTransaction(uint256 _propertyId) external onlySmartHouse onlyTransactionExist(_propertyId) payable {\r\n    address payable _seller = sellerOf(_propertyId);\r\n    uint256 _amountPaymentSeller = amountPaymentSellerOf(_propertyId);\r\n    require(_amountPaymentSeller <= msg.value, \"Invalid amount of payment\");\r\n\r\n    uint256 change;\r\n\r\n    if(msg.value > _amountPaymentSeller){\r\n      change = msg.value - _amountPaymentSeller;\r\n      _seller.transfer(change);\r\n    }\r\n\r\n    TransactionDB(getTransactionDB()).setStateOf(_propertyId, TransactionDB.State.SellerPaid);\r\n    emit sellerPayment(_seller, msg.value, change);\r\n  }\r\n\r\n  function buyerTransaction(uint256 _propertyId) external onlySmartHouse onlyTransactionExist(_propertyId) payable {\r\n    address payable _buyer = buyerOf(_propertyId);\r\n    uint256 _amountPaymentBuyer = amountPaymentBuyerOf(_propertyId);\r\n    require(_amountPaymentBuyer <= msg.value, \"Invalid amount of payment\");\r\n\r\n    uint256 change;\r\n\r\n    if(msg.value > _amountPaymentBuyer){\r\n      change = msg.value - _amountPaymentBuyer;\r\n\r\n      _buyer.transfer(change);\r\n    }\r\n\r\n    TransactionDB(getTransactionDB()).setStateOf(_propertyId, TransactionDB.State.BuyerPaid);\r\n    emit buyerPayment(_buyer, msg.value, change);\r\n  }\r\n\r\n  function completeTransaction(uint256 _propertyId) external onlySmartHouse onlyTransactionExist(_propertyId) {\r\n    address payable _notary = notaryOf(_propertyId);\r\n    address payable _seller = sellerOf(_propertyId);\r\n    address payable _buyer = buyerOf(_propertyId);\r\n    uint256 _notaryPrice = notaryPriceOf(_propertyId);\r\n    uint256 _amountPrice = amountPriceOf(_propertyId);\r\n    uint256 _depositAmount = depositAmountOf(_propertyId);\r\n\r\n    _notary.transfer(_notaryPrice);\r\n    _seller.transfer(_amountPrice.sub(_depositAmount));\r\n\r\n    TransactionDB(getTransactionDB()).setStateOf(_propertyId, TransactionDB.State.Finished);\r\n    emit settledTransaction(_notary, _seller, _buyer, _propertyId,\r\n                            _amountPrice);\r\n  }\r\n\r\n  function abortTransaction(address _canceller, uint256 _propertyId) external onlySmartHouse onlyTransactionExist(_propertyId) {\r\n    TransactionDB.State _state = stateOf(_propertyId);\r\n    address payable _seller = sellerOf(_propertyId);\r\n    address payable _buyer = buyerOf(_propertyId);\r\n    uint256 _amountPaymentSeller = amountPaymentSellerOf(_propertyId);\r\n\r\n    if(_state == TransactionDB.State.SellerPaid){\r\n      _seller.transfer(_amountPaymentSeller);\r\n    }\r\n    else if(_state == TransactionDB.State.BuyerPaid){\r\n      uint256 _amountPaymentBuyer = amountPaymentBuyerOf(_propertyId);\r\n      _seller.transfer(_amountPaymentSeller);\r\n      _buyer.transfer(_amountPaymentBuyer);\r\n    }\r\n\r\n    TransactionDB(getTransactionDB()).setStateOf(_propertyId, TransactionDB.State.Inactive);\r\n    emit cancelTransaction(_canceller, _propertyId);\r\n  }\r\n}\r\n",
  "sourcePath": "/Users/fadhlan.ridhwanallah/Documents/Project/TOKOIN/Contract_SmartHouse/contracts/Transaction.sol",
  "compiler": {
    "name": "solc",
    "version": "0.5.0+commit.1d4f565a.Emscripten.clang"
  },
  "schemaVersion": "3.0.2",
  "updatedAt": "2019-03-09T17:45:35.892Z",
  "devdoc": {
    "methods": {}
  },
  "userdoc": {
    "methods": {}
  }
}