{
  "contractName": "TransactionDB",
  "abi": [
    {
      "constant": false,
      "inputs": [
        {
          "name": "_contractManager",
          "type": "address"
        }
      ],
      "name": "setContractManager",
      "outputs": [
        {
          "name": "",
          "type": "bool"
        }
      ],
      "payable": false,
      "stateMutability": "nonpayable",
      "type": "function",
      "signature": "0xd8dbe4c9"
    },
    {
      "constant": true,
      "inputs": [
        {
          "name": "_propertyId",
          "type": "uint256"
        }
      ],
      "name": "getNotaryOf",
      "outputs": [
        {
          "name": "",
          "type": "address"
        }
      ],
      "payable": false,
      "stateMutability": "view",
      "type": "function",
      "signature": "0x30d28f44"
    },
    {
      "constant": true,
      "inputs": [
        {
          "name": "_propertyId",
          "type": "uint256"
        }
      ],
      "name": "getBuyerOf",
      "outputs": [
        {
          "name": "",
          "type": "address"
        }
      ],
      "payable": false,
      "stateMutability": "view",
      "type": "function",
      "signature": "0x05f3de4f"
    },
    {
      "constant": true,
      "inputs": [
        {
          "name": "_propertyId",
          "type": "uint256"
        }
      ],
      "name": "getSellerOf",
      "outputs": [
        {
          "name": "",
          "type": "address"
        }
      ],
      "payable": false,
      "stateMutability": "view",
      "type": "function",
      "signature": "0x8f194b70"
    },
    {
      "constant": true,
      "inputs": [
        {
          "name": "_propertyId",
          "type": "uint256"
        }
      ],
      "name": "getIpfsHashOf",
      "outputs": [
        {
          "name": "",
          "type": "string"
        }
      ],
      "payable": false,
      "stateMutability": "view",
      "type": "function",
      "signature": "0xda75c3d3"
    },
    {
      "constant": true,
      "inputs": [
        {
          "name": "_propertyId",
          "type": "uint256"
        }
      ],
      "name": "getNotaryPriceOf",
      "outputs": [
        {
          "name": "",
          "type": "uint256"
        }
      ],
      "payable": false,
      "stateMutability": "view",
      "type": "function",
      "signature": "0x8d2416eb"
    },
    {
      "constant": true,
      "inputs": [
        {
          "name": "_propertyId",
          "type": "uint256"
        }
      ],
      "name": "getAmountPriceOf",
      "outputs": [
        {
          "name": "",
          "type": "uint256"
        }
      ],
      "payable": false,
      "stateMutability": "view",
      "type": "function",
      "signature": "0x3b2df2bc"
    },
    {
      "constant": true,
      "inputs": [
        {
          "name": "_propertyId",
          "type": "uint256"
        }
      ],
      "name": "getDepositAmountOf",
      "outputs": [
        {
          "name": "",
          "type": "uint256"
        }
      ],
      "payable": false,
      "stateMutability": "view",
      "type": "function",
      "signature": "0x5d102a8c"
    },
    {
      "constant": true,
      "inputs": [
        {
          "name": "_propertyId",
          "type": "uint256"
        }
      ],
      "name": "getAmountPaymentSellerOf",
      "outputs": [
        {
          "name": "",
          "type": "uint256"
        }
      ],
      "payable": false,
      "stateMutability": "view",
      "type": "function",
      "signature": "0x31400c48"
    },
    {
      "constant": true,
      "inputs": [
        {
          "name": "_propertyId",
          "type": "uint256"
        }
      ],
      "name": "getAmountPaymentBuyerOf",
      "outputs": [
        {
          "name": "",
          "type": "uint256"
        }
      ],
      "payable": false,
      "stateMutability": "view",
      "type": "function",
      "signature": "0x6047e1f8"
    },
    {
      "constant": true,
      "inputs": [
        {
          "name": "_propertyId",
          "type": "uint256"
        }
      ],
      "name": "getStateOf",
      "outputs": [
        {
          "name": "",
          "type": "uint8"
        }
      ],
      "payable": false,
      "stateMutability": "view",
      "type": "function",
      "signature": "0xac3cfaf4"
    },
    {
      "constant": true,
      "inputs": [
        {
          "name": "_propertyId",
          "type": "uint256"
        }
      ],
      "name": "isTransactionExist",
      "outputs": [
        {
          "name": "",
          "type": "bool"
        }
      ],
      "payable": false,
      "stateMutability": "view",
      "type": "function",
      "signature": "0x64f62ad5"
    },
    {
      "constant": false,
      "inputs": [
        {
          "name": "_propertyId",
          "type": "uint256"
        },
        {
          "name": "_notary",
          "type": "address"
        },
        {
          "name": "_buyer",
          "type": "address"
        },
        {
          "name": "_seller",
          "type": "address"
        },
        {
          "name": "_ipfsHash",
          "type": "string"
        },
        {
          "name": "_notaryPrice",
          "type": "uint256"
        },
        {
          "name": "_amountPrice",
          "type": "uint256"
        },
        {
          "name": "_depositAmount",
          "type": "uint256"
        },
        {
          "name": "_amountPaymentSeller",
          "type": "uint256"
        },
        {
          "name": "_amountPaymentBuyer",
          "type": "uint256"
        },
        {
          "name": "_state",
          "type": "uint8"
        }
      ],
      "name": "setTransaction",
      "outputs": [],
      "payable": false,
      "stateMutability": "nonpayable",
      "type": "function",
      "signature": "0x8c5ab690"
    },
    {
      "constant": false,
      "inputs": [
        {
          "name": "_propertyId",
          "type": "uint256"
        },
        {
          "name": "_state",
          "type": "uint8"
        }
      ],
      "name": "setStateOf",
      "outputs": [],
      "payable": false,
      "stateMutability": "nonpayable",
      "type": "function",
      "signature": "0x734a90c7"
    }
  ],
  "bytecode": "0x608060405234801561001057600080fd5b50611762806100206000396000f3fe6080604052600436106100d0576000357c0100000000000000000000000000000000000000000000000000000000900463ffffffff16806305f3de4f146100d557806330d28f441461015057806331400c48146101cb5780633b2df2bc1461021a5780635d102a8c146102695780636047e1f8146102b857806364f62ad514610307578063734a90c71461035a5780638c5ab690146103a25780638d2416eb146105145780638f194b7014610563578063ac3cfaf4146105de578063d8dbe4c91461063b578063da75c3d3146106a4575b600080fd5b3480156100e157600080fd5b5061010e600480360360208110156100f857600080fd5b8101908080359060200190929190505050610758565b604051808273ffffffffffffffffffffffffffffffffffffffff1673ffffffffffffffffffffffffffffffffffffffff16815260200191505060405180910390f35b34801561015c57600080fd5b506101896004803603602081101561017357600080fd5b8101908080359060200190929190505050610842565b604051808273ffffffffffffffffffffffffffffffffffffffff1673ffffffffffffffffffffffffffffffffffffffff16815260200191505060405180910390f35b3480156101d757600080fd5b50610204600480360360208110156101ee57600080fd5b810190808035906020019092919050505061092c565b6040518082815260200191505060405180910390f35b34801561022657600080fd5b506102536004803603602081101561023d57600080fd5b81019080803590602001909291905050506109f6565b6040518082815260200191505060405180910390f35b34801561027557600080fd5b506102a26004803603602081101561028c57600080fd5b8101908080359060200190929190505050610ac0565b6040518082815260200191505060405180910390f35b3480156102c457600080fd5b506102f1600480360360208110156102db57600080fd5b8101908080359060200190929190505050610b8a565b6040518082815260200191505060405180910390f35b34801561031357600080fd5b506103406004803603602081101561032a57600080fd5b8101908080359060200190929190505050610c54565b604051808215151515815260200191505060405180910390f35b34801561036657600080fd5b506103a06004803603604081101561037d57600080fd5b8101908080359060200190929190803560ff169060200190929190505050610d6e565b005b3480156103ae57600080fd5b5061051260048036036101608110156103c657600080fd5b8101908080359060200190929190803573ffffffffffffffffffffffffffffffffffffffff169060200190929190803573ffffffffffffffffffffffffffffffffffffffff169060200190929190803573ffffffffffffffffffffffffffffffffffffffff1690602001909291908035906020019064010000000081111561044d57600080fd5b82018360208201111561045f57600080fd5b8035906020019184600183028401116401000000008311171561048157600080fd5b91908080601f016020809104026020016040519081016040528093929190818152602001838380828437600081840152601f19601f8201169050808301925050505050505091929192908035906020019092919080359060200190929190803590602001909291908035906020019092919080359060200190929190803560ff169060200190929190505050610e53565b005b34801561052057600080fd5b5061054d6004803603602081101561053757600080fd5b81019080803590602001909291905050506110f2565b6040518082815260200191505060405180910390f35b34801561056f57600080fd5b5061059c6004803603602081101561058657600080fd5b81019080803590602001909291905050506111bc565b604051808273ffffffffffffffffffffffffffffffffffffffff1673ffffffffffffffffffffffffffffffffffffffff16815260200191505060405180910390f35b3480156105ea57600080fd5b506106176004803603602081101561060157600080fd5b81019080803590602001909291905050506112a6565b6040518082600481111561062757fe5b60ff16815260200191505060405180910390f35b34801561064757600080fd5b5061068a6004803603602081101561065e57600080fd5b81019080803573ffffffffffffffffffffffffffffffffffffffff16906020019092919050505061137d565b604051808215151515815260200191505060405180910390f35b3480156106b057600080fd5b506106dd600480360360208110156106c757600080fd5b810190808035906020019092919050505061143f565b6040518080602001828103825283818151815260200191508051906020019080838360005b8381101561071d578082015181840152602081019050610702565b50505050905090810190601f16801561074a5780820380516001836020036101000a031916815260200191505b509250505060405180910390f35b60006107626115a1565b73ffffffffffffffffffffffffffffffffffffffff163373ffffffffffffffffffffffffffffffffffffffff16141515610804576040517f08c379a000000000000000000000000000000000000000000000000000000000815260040180806020018281038252601c8152602001807f496e76616c6964207472616e73616374696f6e20636f6e74726163740000000081525060200191505060405180910390fd5b6001600083815260200190815260200160002060010160009054906101000a900473ffffffffffffffffffffffffffffffffffffffff169050919050565b600061084c6115a1565b73ffffffffffffffffffffffffffffffffffffffff163373ffffffffffffffffffffffffffffffffffffffff161415156108ee576040517f08c379a000000000000000000000000000000000000000000000000000000000815260040180806020018281038252601c8152602001807f496e76616c6964207472616e73616374696f6e20636f6e74726163740000000081525060200191505060405180910390fd5b6001600083815260200190815260200160002060000160009054906101000a900473ffffffffffffffffffffffffffffffffffffffff169050919050565b60006109366115a1565b73ffffffffffffffffffffffffffffffffffffffff163373ffffffffffffffffffffffffffffffffffffffff161415156109d8576040517f08c379a000000000000000000000000000000000000000000000000000000000815260040180806020018281038252601c8152602001807f496e76616c6964207472616e73616374696f6e20636f6e74726163740000000081525060200191505060405180910390fd5b60016000838152602001908152602001600020600701549050919050565b6000610a006115a1565b73ffffffffffffffffffffffffffffffffffffffff163373ffffffffffffffffffffffffffffffffffffffff16141515610aa2576040517f08c379a000000000000000000000000000000000000000000000000000000000815260040180806020018281038252601c8152602001807f496e76616c6964207472616e73616374696f6e20636f6e74726163740000000081525060200191505060405180910390fd5b60016000838152602001908152602001600020600501549050919050565b6000610aca6115a1565b73ffffffffffffffffffffffffffffffffffffffff163373ffffffffffffffffffffffffffffffffffffffff16141515610b6c576040517f08c379a000000000000000000000000000000000000000000000000000000000815260040180806020018281038252601c8152602001807f496e76616c6964207472616e73616374696f6e20636f6e74726163740000000081525060200191505060405180910390fd5b60016000838152602001908152602001600020600601549050919050565b6000610b946115a1565b73ffffffffffffffffffffffffffffffffffffffff163373ffffffffffffffffffffffffffffffffffffffff16141515610c36576040517f08c379a000000000000000000000000000000000000000000000000000000000815260040180806020018281038252601c8152602001807f496e76616c6964207472616e73616374696f6e20636f6e74726163740000000081525060200191505060405180910390fd5b60016000838152602001908152602001600020600801549050919050565b6000610c5e6115a1565b73ffffffffffffffffffffffffffffffffffffffff163373ffffffffffffffffffffffffffffffffffffffff16141515610d00576040517f08c379a000000000000000000000000000000000000000000000000000000000815260040180806020018281038252601c8152602001807f496e76616c6964207472616e73616374696f6e20636f6e74726163740000000081525060200191505060405180910390fd5b600073ffffffffffffffffffffffffffffffffffffffff166001600084815260200190815260200160002060020160009054906101000a900473ffffffffffffffffffffffffffffffffffffffff1673ffffffffffffffffffffffffffffffffffffffff1614159050919050565b610d766115a1565b73ffffffffffffffffffffffffffffffffffffffff163373ffffffffffffffffffffffffffffffffffffffff16141515610e18576040517f08c379a000000000000000000000000000000000000000000000000000000000815260040180806020018281038252601c8152602001807f496e76616c6964207472616e73616374696f6e20636f6e74726163740000000081525060200191505060405180910390fd5b806001600084815260200190815260200160002060090160006101000a81548160ff02191690836004811115610e4a57fe5b02179055505050565b610e5b6115a1565b73ffffffffffffffffffffffffffffffffffffffff163373ffffffffffffffffffffffffffffffffffffffff16141515610efd576040517f08c379a000000000000000000000000000000000000000000000000000000000815260040180806020018281038252601c8152602001807f496e76616c6964207472616e73616374696f6e20636f6e74726163740000000081525060200191505060405180910390fd5b89600160008d815260200190815260200160002060000160006101000a81548173ffffffffffffffffffffffffffffffffffffffff021916908373ffffffffffffffffffffffffffffffffffffffff16021790555088600160008d815260200190815260200160002060010160006101000a81548173ffffffffffffffffffffffffffffffffffffffff021916908373ffffffffffffffffffffffffffffffffffffffff16021790555087600160008d815260200190815260200160002060020160006101000a81548173ffffffffffffffffffffffffffffffffffffffff021916908373ffffffffffffffffffffffffffffffffffffffff16021790555086600160008d81526020019081526020016000206003019080519060200190611026929190611691565b5085600160008d81526020019081526020016000206004018190555084600160008d81526020019081526020016000206005018190555083600160008d81526020019081526020016000206006018190555082600160008d81526020019081526020016000206007018190555081600160008d81526020019081526020016000206008018190555080600160008d815260200190815260200160002060090160006101000a81548160ff021916908360048111156110e057fe5b02179055505050505050505050505050565b60006110fc6115a1565b73ffffffffffffffffffffffffffffffffffffffff163373ffffffffffffffffffffffffffffffffffffffff1614151561119e576040517f08c379a000000000000000000000000000000000000000000000000000000000815260040180806020018281038252601c8152602001807f496e76616c6964207472616e73616374696f6e20636f6e74726163740000000081525060200191505060405180910390fd5b60016000838152602001908152602001600020600401549050919050565b60006111c66115a1565b73ffffffffffffffffffffffffffffffffffffffff163373ffffffffffffffffffffffffffffffffffffffff16141515611268576040517f08c379a000000000000000000000000000000000000000000000000000000000815260040180806020018281038252601c8152602001807f496e76616c6964207472616e73616374696f6e20636f6e74726163740000000081525060200191505060405180910390fd5b6001600083815260200190815260200160002060020160009054906101000a900473ffffffffffffffffffffffffffffffffffffffff169050919050565b60006112b06115a1565b73ffffffffffffffffffffffffffffffffffffffff163373ffffffffffffffffffffffffffffffffffffffff16141515611352576040517f08c379a000000000000000000000000000000000000000000000000000000000815260040180806020018281038252601c8152602001807f496e76616c6964207472616e73616374696f6e20636f6e74726163740000000081525060200191505060405180910390fd5b6001600083815260200190815260200160002060090160009054906101000a900460ff169050919050565b60008073ffffffffffffffffffffffffffffffffffffffff168273ffffffffffffffffffffffffffffffffffffffff16141580156113e757508173ffffffffffffffffffffffffffffffffffffffff163373ffffffffffffffffffffffffffffffffffffffff1614155b156113f5576000905061143a565b816000806101000a81548173ffffffffffffffffffffffffffffffffffffffff021916908373ffffffffffffffffffffffffffffffffffffffff160217905550600190505b919050565b60606114496115a1565b73ffffffffffffffffffffffffffffffffffffffff163373ffffffffffffffffffffffffffffffffffffffff161415156114eb576040517f08c379a000000000000000000000000000000000000000000000000000000000815260040180806020018281038252601c8152602001807f496e76616c6964207472616e73616374696f6e20636f6e74726163740000000081525060200191505060405180910390fd5b600160008381526020019081526020016000206003018054600181600116156101000203166002900480601f0160208091040260200160405190810160405280929190818152602001828054600181600116156101000203166002900480156115955780601f1061156a57610100808354040283529160200191611595565b820191906000526020600020905b81548152906001019060200180831161157857829003601f168201915b50505050509050919050565b60008060009054906101000a900473ffffffffffffffffffffffffffffffffffffffff1673ffffffffffffffffffffffffffffffffffffffff1663ec56a3736040518163ffffffff167c010000000000000000000000000000000000000000000000000000000002815260040180807f7472616e73616374696f6e000000000000000000000000000000000000000000815250602001905060206040518083038186803b15801561165157600080fd5b505afa158015611665573d6000803e3d6000fd5b505050506040513d602081101561167b57600080fd5b8101908080519060200190929190505050905090565b828054600181600116156101000203166002900490600052602060002090601f016020900481019282601f106116d257805160ff1916838001178555611700565b82800160010185558215611700579182015b828111156116ff5782518255916020019190600101906116e4565b5b50905061170d9190611711565b5090565b61173391905b8082111561172f576000816000905550600101611717565b5090565b9056fea165627a7a72305820899c86de336a4f42e492234a72bda6b11af014303a852d2687d8d7f4a0e2daa30029",
  "source": "pragma solidity <=0.5.0;\r\n//Author: Fadhlan Ridhwanallah\r\n\r\nimport './CMCEnabled.sol';\r\nimport './ContractProvider.sol';\r\n\r\n//PropertyBase\r\ncontract TransactionDB is CMCEnabled {\r\n\r\n  function getTransaction() private view returns (address){\r\n    return ContractProvider(contractManager).contracts('transaction');\r\n  }\r\n\r\n  enum State { Created, SellerPaid, BuyerPaid, Finished, Inactive }\r\n\r\n  struct Transaction {\r\n    address payable notary;\r\n    address payable buyer;\r\n    address payable seller;\r\n    string ipfsHash;\r\n    uint256 notaryPrice;\r\n    uint256 amountPrice;\r\n    uint256 depositAmount;\r\n    uint256 amountPaymentSeller;\r\n    uint256 amountPaymentBuyer;\r\n    State state;\r\n  }\r\n\r\n  //All transaction store in this contract\r\n  mapping(uint256 => Transaction) private transactionData;\r\n\r\n  //Stores the index of a transaction in the transactionOf\r\n  mapping(uint256 => uint256) private indexOfTransaction;\r\n\r\n  modifier onlyTransactionContract() {\r\n    require(msg.sender == getTransaction(), \"Invalid transaction contract\");\r\n    _;\r\n  }\r\n\r\n  function getNotaryOf(uint256 _propertyId) public view onlyTransactionContract returns (address payable) {\r\n    return transactionData[_propertyId].notary;\r\n  }\r\n\r\n  function getBuyerOf(uint256 _propertyId) public view onlyTransactionContract returns (address payable) {\r\n    return transactionData[_propertyId].buyer;\r\n  }\r\n\r\n  function getSellerOf(uint256 _propertyId) public view onlyTransactionContract returns (address payable) {\r\n    return transactionData[_propertyId].seller;\r\n  }\r\n\r\n  function getIpfsHashOf(uint256 _propertyId) public view onlyTransactionContract returns (string memory) {\r\n    return transactionData[_propertyId].ipfsHash;\r\n  }\r\n\r\n  function getNotaryPriceOf(uint256 _propertyId) public view onlyTransactionContract returns (uint256) {\r\n    return transactionData[_propertyId].notaryPrice;\r\n  }\r\n\r\n  function getAmountPriceOf(uint256 _propertyId) public view onlyTransactionContract returns (uint256) {\r\n    return transactionData[_propertyId].amountPrice;\r\n  }\r\n\r\n  function getDepositAmountOf(uint256 _propertyId) public view onlyTransactionContract returns (uint256) {\r\n    return transactionData[_propertyId].depositAmount;\r\n  }\r\n\r\n  function getAmountPaymentSellerOf(uint256 _propertyId) public view onlyTransactionContract returns (uint256) {\r\n    return transactionData[_propertyId].amountPaymentSeller;\r\n  }\r\n\r\n  function getAmountPaymentBuyerOf(uint256 _propertyId) public view onlyTransactionContract returns (uint256) {\r\n    return transactionData[_propertyId].amountPaymentBuyer;\r\n  }\r\n\r\n  function getStateOf(uint256 _propertyId) public view onlyTransactionContract returns (State) {\r\n    return transactionData[_propertyId].state;\r\n  }\r\n\r\n  function isTransactionExist(uint256 _propertyId) public view onlyTransactionContract returns (bool) {\r\n    return transactionData[_propertyId].seller != address(0x0);\r\n  }\r\n\r\n  function setTransaction(uint256 _propertyId, address payable _notary, address payable _buyer, address payable _seller, string memory _ipfsHash, uint256 _notaryPrice,\r\n                          uint256 _amountPrice, uint256 _depositAmount, uint256 _amountPaymentSeller, uint256 _amountPaymentBuyer, State _state)\r\n  public onlyTransactionContract {\r\n    transactionData[_propertyId].notary = _notary;\r\n    transactionData[_propertyId].buyer = _buyer;\r\n    transactionData[_propertyId].seller = _seller;\r\n    transactionData[_propertyId].ipfsHash = _ipfsHash;\r\n    transactionData[_propertyId].notaryPrice = _notaryPrice;\r\n    transactionData[_propertyId].amountPrice = _amountPrice;\r\n    transactionData[_propertyId].depositAmount = _depositAmount;\r\n    transactionData[_propertyId].amountPaymentSeller = _amountPaymentSeller;\r\n    transactionData[_propertyId].amountPaymentBuyer = _amountPaymentBuyer;\r\n    transactionData[_propertyId].state = _state;\r\n  }\r\n\r\n  function setStateOf(uint256 _propertyId, State _state) public onlyTransactionContract {\r\n      transactionData[_propertyId].state = _state;\r\n  }\r\n\r\n}\r\n",
  "sourcePath": "/Users/fadhlan.ridhwanallah/Documents/Project/TOKOIN/Contract_SmartHouse/contracts/TransactionDB.sol",
  "compiler": {
    "name": "solc",
    "version": "0.5.0+commit.1d4f565a.Emscripten.clang"
  },
  "schemaVersion": "3.0.2",
  "updatedAt": "2019-03-09T17:45:35.875Z",
  "devdoc": {
    "methods": {}
  },
  "userdoc": {
    "methods": {}
  }
}